{"contracts/CrowdHelp.sol":{"CrowdHelp":{"abi":[{"anonymous":false,"inputs":[{"indexed":false,"internalType":"address","name":"projectContractAddress","type":"address"},{"indexed":false,"internalType":"address","name":"creator","type":"address"},{"indexed":false,"internalType":"uint256","name":"minContribution","type":"uint256"},{"indexed":false,"internalType":"uint256","name":"projectDeadline","type":"uint256"},{"indexed":false,"internalType":"uint256","name":"goalAmount","type":"uint256"},{"indexed":false,"internalType":"uint256","name":"currentAmount","type":"uint256"},{"indexed":false,"internalType":"uint256","name":"noOfContributors","type":"uint256"},{"indexed":false,"internalType":"string","name":"title","type":"string"},{"indexed":false,"internalType":"string","name":"desc","type":"string"},{"indexed":false,"internalType":"uint256","name":"currentState","type":"uint256"}],"name":"CampaignStarted","type":"event"},{"anonymous":false,"inputs":[{"indexed":false,"internalType":"address","name":"projectAddress","type":"address"},{"indexed":false,"internalType":"uint256","name":"contributedAmount","type":"uint256"},{"indexed":true,"internalType":"address","name":"contributor","type":"address"}],"name":"ContributionReceived","type":"event"},{"inputs":[{"internalType":"string","name":"projectTitle","type":"string"},{"internalType":"string","name":"projectDesc","type":"string"},{"internalType":"uint256","name":"minimumContribution","type":"uint256"},{"internalType":"uint256","name":"targetContribution","type":"uint256"},{"internalType":"uint256","name":"deadline","type":"uint256"},{"internalType":"string","name":"bannerUrl","type":"string"}],"name":"createCampaign","outputs":[],"stateMutability":"nonpayable","type":"function"},{"inputs":[],"name":"returnDeployedCampaigns","outputs":[{"internalType":"contract Campaign[]","name":"","type":"address[]"}],"stateMutability":"view","type":"function"}],"devdoc":{"kind":"dev","methods":{},"version":1},"evm":{"bytecode":{"linkReferences":{},"object":"6080806040523461001657612423908161001c8239f35b600080fdfe60406080815260048036101561001457600080fd5b600090813560e01c9081636b047df414610134575063e327e2141461003857600080fd5b3461013157807ffffffffffffffffffffffffffffffffffffffffffffffffffffffffffffffffc36011261013157908051918290805491828552602080950180938380527f290decd9548b62a8d60345a988386fc84ba6bc95484008f6362f93160ef3e56390845b81811061010757505050816100b6910382610355565b83519485948186019282875251809352850193925b8281106100da57505050500390f35b835173ffffffffffffffffffffffffffffffffffffffff16855286955093810193928101926001016100cb565b825473ffffffffffffffffffffffffffffffffffffffff16845292880192600192830192016100a0565b80fd5b839150346103515760c07ffffffffffffffffffffffffffffffffffffffffffffffffffffffffffffffffc3601126103515767ffffffffffffffff813581811161034d5761018590369084016103c5565b906024358181116103495761019d90369085016103c5565b60a435828111610345576101b490369086016103c5565b90855193611f5080860194868610908611176103195785949261020961022595936102179361049e893933865260443560208701526084358b870152606435606087015260e0608087015260e086019061043f565b9084820360a086015261043f565b9160c081840391015261043f565b039084f09182156103105750825490680100000000000000008210156102e457600182018085558210156102b8575073ffffffffffffffffffffffffffffffffffffffff907f290decd9548b62a8d60345a988386fc84ba6bc95484008f6362f93160ef3e5630191167fffffffffffffffffffffffff000000000000000000000000000000000000000082541617905580f35b8360326024927f4e487b7100000000000000000000000000000000000000000000000000000000835252fd5b8360416024927f4e487b7100000000000000000000000000000000000000000000000000000000835252fd5b513d84823e3d90fd5b6024896041897f4e487b7100000000000000000000000000000000000000000000000000000000835252fd5b8680fd5b8580fd5b8480fd5b8280fd5b90601f7fffffffffffffffffffffffffffffffffffffffffffffffffffffffffffffffe0910116810190811067ffffffffffffffff82111761039657604052565b7f4e487b7100000000000000000000000000000000000000000000000000000000600052604160045260246000fd5b81601f8201121561043a5780359067ffffffffffffffff8211610396576040519261041860207fffffffffffffffffffffffffffffffffffffffffffffffffffffffffffffffe0601f8601160185610355565b8284526020838301011161043a57816000926020809301838601378301015290565b600080fd5b919082519283825260005b8481106104895750507fffffffffffffffffffffffffffffffffffffffffffffffffffffffffffffffe0601f8460006020809697860101520116010190565b60208183018101518483018201520161044a56fe608060405234620004be5762001f50803803806200001d81620004c3565b928339810160e082820312620004be5781516001600160a01b03811690819003620004be576020928381015190604081015160608201519360808301519560018060401b0396878111620004be578162000079918601620004ff565b9360a0810151888111620004be578262000095918301620004ff565b9160c0820151898111620004be57620000af9201620004ff565b600b805460ff19169055600080546001600160a01b0319169093178355600195865560029390935560039586558351878111620003d957600754948686811c96168015620004b3575b8a871014620003ba578190601f968781116200045f575b508a90878311600114620003f9578592620003ed575b505060001982891b1c191690861b176007555b805190878211620003d9576008548681811c91168015620003ce575b8a821014620003ba5790818684931162000366575b50899086831160011462000301578492620002f5575b505060001982881b1c191690851b176008555b806005558151958611620002e1576009548481811c91168015620002d6575b88821014620002c25783811162000279575b50869286116001146200020b579495508592919083620001ff575b50501b92600019911b1c1916176009555b6040516119de9081620005728239f35b015193503880620001de565b6009815286812093969394938691601f198316915b898383106200025e575050501062000243575b50505050811b01600955620001ef565b01519060f884600019921b161c191690553880808062000233565b85870151895590970196948501948893509081019062000220565b600982528782208480890160051c8201928a8a10620002b8575b0160051c019085905b828110620002ac575050620001c3565b8381550185906200029c565b9250819262000293565b634e487b7160e01b82526022600452602482fd5b90607f1690620001b1565b634e487b7160e01b81526041600452602490fd5b0151905038806200017f565b600885528a85208894509190601f198416865b8d8282106200034f575050841162000336575b505050811b0160085562000192565b0151600019838a1b60f8161c1916905538808062000327565b8385015186558b9790950194938401930162000314565b909150600884528984208680850160051c8201928c8610620003b0575b918991869594930160051c01915b828110620003a157505062000169565b86815585945089910162000391565b9250819262000383565b634e487b7160e01b84526022600452602484fd5b90607f169062000154565b634e487b7160e01b83526041600452602483fd5b01519050388062000125565b600786528b86208994509190601f198416878e5b8282106200044757505084116200042e575b505050811b0160075562000138565b0151600019838b1b60f8161c191690553880806200041f565b8385015186558c979095019493840193018e6200040d565b909150600785528a85208780850160051c8201928d8610620004a9575b918a91869594930160051c01915b8281106200049a5750506200010f565b8781558594508a91016200048a565b925081926200047c565b95607f1695620000f8565b600080fd5b6040519190601f01601f191682016001600160401b03811183821017620004e957604052565b634e487b7160e01b600052604160045260246000fd5b919080601f84011215620004be5782516001600160401b038111620004e95760209062000535601f8201601f19168301620004c3565b92818452828287010111620004be5760005b8181106200055d57508260009394955001015290565b85810183015184820184015282016200054756fe608060408181526004918236101561001657600080fd5b600090813560e01c90816302d05d3f146116a05750806303c29d58146115d857806329dcb0cf1461159b5780633d0300bd146113455780634e260f6f146113085780636758a145146112405780636f9fb98a146112075780637a9a80551461113f578063937e09b1146111025780639d43b9b5146110c6578063a00c96d714610c99578063b82c86d614610c5c578063c19d93fb14610c15578063c3e20c9f14610af0578063c59ee1dc14610ab3578063d7bb99ba146105f05763f9aebece146100df57600080fd5b602091827ffffffffffffffffffffffffffffffffffffffffffffffffffffffffffffffffc3601126105ec5783359367ffffffffffffffff8086116105e857366023870112156105e85785820135908082116105bc578351917fffffffffffffffffffffffffffffffffffffffffffffffffffffffffffffffe09061016b8883601f8401160185611741565b808452602498368a83830101116105b8578188928b8b9301838801378501015273ffffffffffffffffffffffffffffffffffffffff926101af84885416331461191d565b6002544210156105375760ff600b54168581101561050c578015908115610501575b5015610480578051928311610455579082916101ee600a546116ee565b601f81116103e6575b508891601f841160011461034a5750879261033f575b50507fffffffffffffffffffffffffffffffffffffffffffffffffffffffffffffffff8260011b9260031b1c191617600a555b835b6006548110156102dc57816102568261184b565b505416858080806102668661184b565b5094600180960154908282156102d3575bf1156102c9576102868261184b565b61029f578681550185905561029a906118f0565b610242565b888780877f4e487b7100000000000000000000000000000000000000000000000000000000825252fd5b84513d87823e3d90fd5b506108fc610277565b847fd69eae259b3e1e42f22f60a8a54dbf4d1983d006a10d5f36c068ccc87eb49391858860037fffffffffffffffffffffffffffffffffffffffffffffffffffffffffffffff00600b541617600b5560065490600554908351928352820152a180f35b01519050388061020d565b600a89527fc65a7bb8d6351c1cf70c95a316cc6a92839c986682d98bc35f958f4883f9d2a89316885b8a8282106103d0575050908460019594939210610399575b505050811b01600a55610240565b01517fffffffffffffffffffffffffffffffffffffffffffffffffffffffffffffffff60f88460031b161c1916905538808061038b565b6001859682939686015181550195019301610373565b90919250600a88527fc65a7bb8d6351c1cf70c95a316cc6a92839c986682d98bc35f958f4883f9d2a8601f850160051c8101918a861061044b575b90601f86959493920160051c01905b81811061043d57506101f7565b898155859450600101610430565b9091508190610421565b88876041877f4e487b7100000000000000000000000000000000000000000000000000000000835252fd5b60848560258b8b8a51937f08c379a00000000000000000000000000000000000000000000000000000000085528401528201527f496e76616c69642073746174652e2043616e6e6f742061626f72742063616d7060448201527f6169676e2e0000000000000000000000000000000000000000000000000000006064820152fd5b6001915014386101d1565b89886021887f4e487b7100000000000000000000000000000000000000000000000000000000835252fd5b608485602c8b8b8a51937f08c379a00000000000000000000000000000000000000000000000000000000085528401528201527f43616d706169676e2063616e6e6f742062652061626f727465642c206465616460448201527f6c696e65207061737365642e00000000000000000000000000000000000000006064820152fd5b8780fd5b6024856041857f4e487b7100000000000000000000000000000000000000000000000000000000835252fd5b8380fd5b5080fd5b509190827ffffffffffffffffffffffffffffffffffffffffffffffffffffffffffffffffc360112610aaf5760ff600b541682811015610a83578015908115610a78575b5015610a1b57600254421015610972576001908154341061091557817fffffffffffffffffffffffffffffffffffffffffffffffffffffffffffffffff85600654905b818112610881575b50507fffffffffffffffffffffffffffffffffffffffffffffffffffffffffffffffff81036108645750506106b56006546118f0565b600655805181810181811067ffffffffffffffff82111761083857825233815260208101348152600c546801000000000000000081101561080c5780856106ff9201600c5561184b565b9290926107e1579073ffffffffffffffffffffffffffffffffffffffff859251167fffffffffffffffffffffffff0000000000000000000000000000000000000000845416178355519101555b7f5cdc4ab8d637538ead6cc1904d4160343656c8c82bd266635cfd31ac008fffe0606061077b346005546118b4565b928360055583815191338352346020840152820152a16003541115806107d6575b6107a4578280f35b7fffffffffffffffffffffffffffffffffffffffffffffffffffffffffffffff00600b541617600b5542905538808280f35b50600254421061079c565b60248780887f4e487b7100000000000000000000000000000000000000000000000000000000825252fd5b6024876041887f4e487b7100000000000000000000000000000000000000000000000000000000835252fd5b6024866041877f4e487b7100000000000000000000000000000000000000000000000000000000835252fd5b61086d9061184b565b500161087a3482546118b4565b905561074c565b90919273ffffffffffffffffffffffffffffffffffffffff6108a28361184b565b505416331461090a57507f7fffffffffffffffffffffffffffffffffffffffffffffffffffffffffffffff81146108de57840190849291610677565b6024876011887f4e487b7100000000000000000000000000000000000000000000000000000000835252fd5b92509050388061067f565b82602060649251917f08c379a0000000000000000000000000000000000000000000000000000000008352820152602060248201527f436f6e747269627574696f6e20616d6f756e7420697320746f6f206c6f7720216044820152fd5b90602060a49251917f08c379a0000000000000000000000000000000000000000000000000000000008352820152604860248201527f536f727279206261636b65722c20646561646c696e652068617320706173736560448201527f6421204e6f20636f6e747269627574696f6e732063616e20626520616363657060648201527f746564206e6f772e0000000000000000000000000000000000000000000000006084820152fd5b90602060649251917f08c379a0000000000000000000000000000000000000000000000000000000008352820152600d60248201527f496e76616c6964207374617465000000000000000000000000000000000000006044820152fd5b600191501438610634565b6024846021857f4e487b7100000000000000000000000000000000000000000000000000000000835252fd5b8280fd5b5090346105ec57817ffffffffffffffffffffffffffffffffffffffffffffffffffffffffffffffffc3601126105ec576020906005549051908152f35b5090346105ec57817ffffffffffffffffffffffffffffffffffffffffffffffffffffffffffffffffc3601126105ec5780519082600754610b30816116ee565b80855291600191808316908115610bcf5750600114610b72575b505050610b5c82610b6e940383611741565b519182916020835260208301906117b1565b0390f35b9450600785527fa66cc928b5edb82af9bd49922954155ab7b0942694bea4ce44661d9a8736c6885b828610610bb757505050610b5c826020610b6e9582010194610b4a565b80546020878701810191909152909501948101610b9a565b610b6e975086935060209250610b5c9491507fffffffffffffffffffffffffffffffffffffffffffffffffffffffffffffff001682840152151560051b82010194610b4a565b5090346105ec57817ffffffffffffffffffffffffffffffffffffffffffffffffffffffffffffffffc3601126105ec57602090610c5a60ff600b54169151809261180f565bf35b5090346105ec57817ffffffffffffffffffffffffffffffffffffffffffffffffffffffffffffffffc3601126105ec576020906003549051908152f35b5090346105ec57817ffffffffffffffffffffffffffffffffffffffffffffffffffffffffffffffffc3601126105ec5773ffffffffffffffffffffffffffffffffffffffff825416916001918254946002546003549154600554845190868260075491610d05836116ee565b808352928b8116908115611089575060011461102b575b610d2892500383611741565b855192878460085491610d3a836116ee565b808352928c8116908115610fee5750600114610f90575b610d5d92500385611741565b60ff600b54169547958851988b8a8c600954610d78816116ee565b808452938116908115610f535750600114610ef6575b610d9a9250038b611741565b6006549a81519c818e9291600a5491610db2836116ee565b80865292828116908115610eb75750600114610e5a575b50505003610dd7908d611741565b80519d8e809e8152602001528c015260608b015260808a015260a08901526101a08060c08a01528801610e09916117b1565b87810360e0890152610e1a916117b1565b916101008701610e299161180f565b610120860152848103610140860152610e41916117b1565b90610160840152828103610180840152610b6e916117b1565b91939250600a82527fc65a7bb8d6351c1cf70c95a316cc6a92839c986682d98bc35f958f4883f9d2a85b848310610e9d5750508160209293500101388080610dc9565b908181946020858195549201015201910190918f92610e84565b915050602093507fffffffffffffffffffffffffffffffffffffffffffffffffffffffffffffff0091501682840152151560051b820101388080610dc9565b50908c908e600983527f6e1540171b6c0c960b71a7020d9f60077f6af931a8bbf590da0223dacf75c7af5b828410610f3a57505050906020610d9a92820101610d8e565b60209294838583549201015201910190918e8d93610f21565b60209250610d9a9491507fffffffffffffffffffffffffffffffffffffffffffffffffffffffffffffff001682840152151560051b820101610d8e565b5060088a529089908b7ff3f7a9fe364faab93b216da50a3214154f22a0a2b415b23a84c8169e8b636ee35b828410610fd457505050906020610d5d92820101610d51565b6020929450805483858b01015201910190918b8793610fbb565b60209250610d5d9491507fffffffffffffffffffffffffffffffffffffffffffffffffffffffffffffff001682840152151560051b820101610d51565b50600789529088908a7fa66cc928b5edb82af9bd49922954155ab7b0942694bea4ce44661d9a8736c6885b82841061106f57505050906020610d2892820101610d1c565b6020929450805483858901015201910190918a8593611056565b60209250610d289491507fffffffffffffffffffffffffffffffffffffffffffffffffffffffffffffff001682840152151560051b820101610d1c565b509134610aaf57827ffffffffffffffffffffffffffffffffffffffffffffffffffffffffffffffffc360112610aaf5760209250549051908152f35b5090346105ec57817ffffffffffffffffffffffffffffffffffffffffffffffffffffffffffffffffc3601126105ec576020906001549051908152f35b5090346105ec57817ffffffffffffffffffffffffffffffffffffffffffffffffffffffffffffffffc3601126105ec578051908260095461117f816116ee565b80855291600191808316908115610bcf57506001146111aa57505050610b5c82610b6e940383611741565b9450600985527f6e1540171b6c0c960b71a7020d9f60077f6af931a8bbf590da0223dacf75c7af5b8286106111ef57505050610b5c826020610b6e9582010194610b4a565b805460208787018101919091529095019481016111d2565b5090346105ec57817ffffffffffffffffffffffffffffffffffffffffffffffffffffffffffffffffc3601126105ec5751478152602090f35b5090346105ec57817ffffffffffffffffffffffffffffffffffffffffffffffffffffffffffffffffc3601126105ec5780519082600a54611280816116ee565b80855291600191808316908115610bcf57506001146112ab57505050610b5c82610b6e940383611741565b9450600a85527fc65a7bb8d6351c1cf70c95a316cc6a92839c986682d98bc35f958f4883f9d2a85b8286106112f057505050610b5c826020610b6e9582010194610b4a565b805460208787018101919091529095019481016112d3565b5090346105ec57817ffffffffffffffffffffffffffffffffffffffffffffffffffffffffffffffffc3601126105ec576020906006549051908152f35b5091827ffffffffffffffffffffffffffffffffffffffffffffffffffffffffffffffffc360112610aaf5773ffffffffffffffffffffffffffffffffffffffff90818454169061139682331461191d565b60ff600b54168181101561156f576001036114c657600254421015611443575083808080936005549082821561143a575bf11561142f57907fc364254574c58e1bdd9077b0e35e609ee391ca636748a275674d5fb5bdc1d3f69160027fffffffffffffffffffffffffffffffffffffffffffffffffffffffffffffff00600b541617600b5583541660055482519182526020820152a180f35b5051903d90823e3d90fd5b506108fc6113c7565b60849060208551917f08c379a0000000000000000000000000000000000000000000000000000000008352820152602f60248201527f43616d706169676e2063616e6e6f7420626520656e6465642c20646561646c6960448201527f6e65206e6f7420726561636865642e00000000000000000000000000000000006064820152fd5b60a49060208551917f08c379a0000000000000000000000000000000000000000000000000000000008352820152604f60248201527f476f616c206e6f7420726561636865642c20616d6f756e742063616e6e6f742060448201527f62652077697468647261776e2e20506c656173652061626f727420746f20726560648201527f66756e6420746f206261636b65727300000000000000000000000000000000006084820152fd5b6024866021847f4e487b7100000000000000000000000000000000000000000000000000000000835252fd5b5090346105ec57817ffffffffffffffffffffffffffffffffffffffffffffffffffffffffffffffffc3601126105ec576020906002549051908152f35b5090346105ec57817ffffffffffffffffffffffffffffffffffffffffffffffffffffffffffffffffc3601126105ec5780519082600854611618816116ee565b80855291600191808316908115610bcf575060011461164357505050610b5c82610b6e940383611741565b9450600885527ff3f7a9fe364faab93b216da50a3214154f22a0a2b415b23a84c8169e8b636ee35b82861061168857505050610b5c826020610b6e9582010194610b4a565b8054602087870181019190915290950194810161166b565b9050346105ec57817ffffffffffffffffffffffffffffffffffffffffffffffffffffffffffffffffc3601126105ec5773ffffffffffffffffffffffffffffffffffffffff60209254168152f35b90600182811c92168015611737575b602083101461170857565b7f4e487b7100000000000000000000000000000000000000000000000000000000600052602260045260246000fd5b91607f16916116fd565b90601f7fffffffffffffffffffffffffffffffffffffffffffffffffffffffffffffffe0910116810190811067ffffffffffffffff82111761178257604052565b7f4e487b7100000000000000000000000000000000000000000000000000000000600052604160045260246000fd5b919082519283825260005b8481106117fb5750507fffffffffffffffffffffffffffffffffffffffffffffffffffffffffffffffe0601f8460006020809697860101520116010190565b6020818301810151848301820152016117bc565b90600482101561181c5752565b7f4e487b7100000000000000000000000000000000000000000000000000000000600052602160045260246000fd5b600c5481101561188557600c60005260011b7fdf6966c971051c3d54ec59162606531493a51404a002842f56009d7e5cf4a8c70190600090565b7f4e487b7100000000000000000000000000000000000000000000000000000000600052603260045260246000fd5b919082018092116118c157565b7f4e487b7100000000000000000000000000000000000000000000000000000000600052601160045260246000fd5b7fffffffffffffffffffffffffffffffffffffffffffffffffffffffffffffffff81146118c15760010190565b1561192457565b60846040517f08c379a000000000000000000000000000000000000000000000000000000000815260206004820152603060248201527f596f7520646f6e7420686176652061636365737320746f20706572666f726d2060448201527f74686973206f7065726174696f6e2021000000000000000000000000000000006064820152fdfea26469706673582212205d4eb9c69431125b1dd0787568bdc7c2fd9096b38ef0fc0a5b689507df8608e864736f6c63430008110033a26469706673582212204568aadc7fa59bdfa99f83790e4b3d7d461db9a32d6709a6cc2a42604d9aad9064736f6c63430008110033","opcodes":"PUSH1 0x80 DUP1 PUSH1 0x40 MSTORE CALLVALUE PUSH2 0x16 JUMPI PUSH2 0x2423 SWAP1 DUP2 PUSH2 0x1C DUP3 CODECOPY RETURN JUMPDEST PUSH1 0x0 DUP1 REVERT INVALID PUSH1 0x40 PUSH1 0x80 DUP2 MSTORE PUSH1 0x4 DUP1 CALLDATASIZE LT ISZERO PUSH2 0x14 JUMPI PUSH1 0x0 DUP1 REVERT JUMPDEST PUSH1 0x0 SWAP1 DUP2 CALLDATALOAD PUSH1 0xE0 SHR SWAP1 DUP2 PUSH4 0x6B047DF4 EQ PUSH2 0x134 JUMPI POP PUSH4 0xE327E214 EQ PUSH2 0x38 JUMPI PUSH1 0x0 DUP1 REVERT JUMPDEST CALLVALUE PUSH2 0x131 JUMPI DUP1 PUSH32 0xFFFFFFFFFFFFFFFFFFFFFFFFFFFFFFFFFFFFFFFFFFFFFFFFFFFFFFFFFFFFFFFC CALLDATASIZE ADD SLT PUSH2 0x131 JUMPI SWAP1 DUP1 MLOAD SWAP2 DUP3 SWAP1 DUP1 SLOAD SWAP2 DUP3 DUP6 MSTORE PUSH1 0x20 DUP1 SWAP6 ADD DUP1 SWAP4 DUP4 DUP1 MSTORE PUSH32 0x290DECD9548B62A8D60345A988386FC84BA6BC95484008F6362F93160EF3E563 SWAP1 DUP5 JUMPDEST DUP2 DUP2 LT PUSH2 0x107 JUMPI POP POP POP DUP2 PUSH2 0xB6 SWAP2 SUB DUP3 PUSH2 0x355 JUMP JUMPDEST DUP4 MLOAD SWAP5 DUP6 SWAP5 DUP2 DUP7 ADD SWAP3 DUP3 DUP8 MSTORE MLOAD DUP1 SWAP4 MSTORE DUP6 ADD SWAP4 SWAP3 JUMPDEST DUP3 DUP2 LT PUSH2 0xDA JUMPI POP POP POP POP SUB SWAP1 RETURN JUMPDEST DUP4 MLOAD PUSH20 0xFFFFFFFFFFFFFFFFFFFFFFFFFFFFFFFFFFFFFFFF AND DUP6 MSTORE DUP7 SWAP6 POP SWAP4 DUP2 ADD SWAP4 SWAP3 DUP2 ADD SWAP3 PUSH1 0x1 ADD PUSH2 0xCB JUMP JUMPDEST DUP3 SLOAD PUSH20 0xFFFFFFFFFFFFFFFFFFFFFFFFFFFFFFFFFFFFFFFF AND DUP5 MSTORE SWAP3 DUP9 ADD SWAP3 PUSH1 0x1 SWAP3 DUP4 ADD SWAP3 ADD PUSH2 0xA0 JUMP JUMPDEST DUP1 REVERT JUMPDEST DUP4 SWAP2 POP CALLVALUE PUSH2 0x351 JUMPI PUSH1 0xC0 PUSH32 0xFFFFFFFFFFFFFFFFFFFFFFFFFFFFFFFFFFFFFFFFFFFFFFFFFFFFFFFFFFFFFFFC CALLDATASIZE ADD SLT PUSH2 0x351 JUMPI PUSH8 0xFFFFFFFFFFFFFFFF DUP2 CALLDATALOAD DUP2 DUP2 GT PUSH2 0x34D JUMPI PUSH2 0x185 SWAP1 CALLDATASIZE SWAP1 DUP5 ADD PUSH2 0x3C5 JUMP JUMPDEST SWAP1 PUSH1 0x24 CALLDATALOAD DUP2 DUP2 GT PUSH2 0x349 JUMPI PUSH2 0x19D SWAP1 CALLDATASIZE SWAP1 DUP6 ADD PUSH2 0x3C5 JUMP JUMPDEST PUSH1 0xA4 CALLDATALOAD DUP3 DUP2 GT PUSH2 0x345 JUMPI PUSH2 0x1B4 SWAP1 CALLDATASIZE SWAP1 DUP7 ADD PUSH2 0x3C5 JUMP JUMPDEST SWAP1 DUP6 MLOAD SWAP4 PUSH2 0x1F50 DUP1 DUP7 ADD SWAP5 DUP7 DUP7 LT SWAP1 DUP7 GT OR PUSH2 0x319 JUMPI DUP6 SWAP5 SWAP3 PUSH2 0x209 PUSH2 0x225 SWAP6 SWAP4 PUSH2 0x217 SWAP4 PUSH2 0x49E DUP10 CODECOPY CALLER DUP7 MSTORE PUSH1 0x44 CALLDATALOAD PUSH1 0x20 DUP8 ADD MSTORE PUSH1 0x84 CALLDATALOAD DUP12 DUP8 ADD MSTORE PUSH1 0x64 CALLDATALOAD PUSH1 0x60 DUP8 ADD MSTORE PUSH1 0xE0 PUSH1 0x80 DUP8 ADD MSTORE PUSH1 0xE0 DUP7 ADD SWAP1 PUSH2 0x43F JUMP JUMPDEST SWAP1 DUP5 DUP3 SUB PUSH1 0xA0 DUP7 ADD MSTORE PUSH2 0x43F JUMP JUMPDEST SWAP2 PUSH1 0xC0 DUP2 DUP5 SUB SWAP2 ADD MSTORE PUSH2 0x43F JUMP JUMPDEST SUB SWAP1 DUP5 CREATE SWAP2 DUP3 ISZERO PUSH2 0x310 JUMPI POP DUP3 SLOAD SWAP1 PUSH9 0x10000000000000000 DUP3 LT ISZERO PUSH2 0x2E4 JUMPI PUSH1 0x1 DUP3 ADD DUP1 DUP6 SSTORE DUP3 LT ISZERO PUSH2 0x2B8 JUMPI POP PUSH20 0xFFFFFFFFFFFFFFFFFFFFFFFFFFFFFFFFFFFFFFFF SWAP1 PUSH32 0x290DECD9548B62A8D60345A988386FC84BA6BC95484008F6362F93160EF3E563 ADD SWAP2 AND PUSH32 0xFFFFFFFFFFFFFFFFFFFFFFFF0000000000000000000000000000000000000000 DUP3 SLOAD AND OR SWAP1 SSTORE DUP1 RETURN JUMPDEST DUP4 PUSH1 0x32 PUSH1 0x24 SWAP3 PUSH32 0x4E487B7100000000000000000000000000000000000000000000000000000000 DUP4 MSTORE MSTORE REVERT JUMPDEST DUP4 PUSH1 0x41 PUSH1 0x24 SWAP3 PUSH32 0x4E487B7100000000000000000000000000000000000000000000000000000000 DUP4 MSTORE MSTORE REVERT JUMPDEST MLOAD RETURNDATASIZE DUP5 DUP3 RETURNDATACOPY RETURNDATASIZE SWAP1 REVERT JUMPDEST PUSH1 0x24 DUP10 PUSH1 0x41 DUP10 PUSH32 0x4E487B7100000000000000000000000000000000000000000000000000000000 DUP4 MSTORE MSTORE REVERT JUMPDEST DUP7 DUP1 REVERT JUMPDEST DUP6 DUP1 REVERT JUMPDEST DUP5 DUP1 REVERT JUMPDEST DUP3 DUP1 REVERT JUMPDEST SWAP1 PUSH1 0x1F PUSH32 0xFFFFFFFFFFFFFFFFFFFFFFFFFFFFFFFFFFFFFFFFFFFFFFFFFFFFFFFFFFFFFFE0 SWAP2 ADD AND DUP2 ADD SWAP1 DUP2 LT PUSH8 0xFFFFFFFFFFFFFFFF DUP3 GT OR PUSH2 0x396 JUMPI PUSH1 0x40 MSTORE JUMP JUMPDEST PUSH32 0x4E487B7100000000000000000000000000000000000000000000000000000000 PUSH1 0x0 MSTORE PUSH1 0x41 PUSH1 0x4 MSTORE PUSH1 0x24 PUSH1 0x0 REVERT JUMPDEST DUP2 PUSH1 0x1F DUP3 ADD SLT ISZERO PUSH2 0x43A JUMPI DUP1 CALLDATALOAD SWAP1 PUSH8 0xFFFFFFFFFFFFFFFF DUP3 GT PUSH2 0x396 JUMPI PUSH1 0x40 MLOAD SWAP3 PUSH2 0x418 PUSH1 0x20 PUSH32 0xFFFFFFFFFFFFFFFFFFFFFFFFFFFFFFFFFFFFFFFFFFFFFFFFFFFFFFFFFFFFFFE0 PUSH1 0x1F DUP7 ADD AND ADD DUP6 PUSH2 0x355 JUMP JUMPDEST DUP3 DUP5 MSTORE PUSH1 0x20 DUP4 DUP4 ADD ADD GT PUSH2 0x43A JUMPI DUP2 PUSH1 0x0 SWAP3 PUSH1 0x20 DUP1 SWAP4 ADD DUP4 DUP7 ADD CALLDATACOPY DUP4 ADD ADD MSTORE SWAP1 JUMP JUMPDEST PUSH1 0x0 DUP1 REVERT JUMPDEST SWAP2 SWAP1 DUP3 MLOAD SWAP3 DUP4 DUP3 MSTORE PUSH1 0x0 JUMPDEST DUP5 DUP2 LT PUSH2 0x489 JUMPI POP POP PUSH32 0xFFFFFFFFFFFFFFFFFFFFFFFFFFFFFFFFFFFFFFFFFFFFFFFFFFFFFFFFFFFFFFE0 PUSH1 0x1F DUP5 PUSH1 0x0 PUSH1 0x20 DUP1 SWAP7 SWAP8 DUP7 ADD ADD MSTORE ADD AND ADD ADD SWAP1 JUMP JUMPDEST PUSH1 0x20 DUP2 DUP4 ADD DUP2 ADD MLOAD DUP5 DUP4 ADD DUP3 ADD MSTORE ADD PUSH2 0x44A JUMP INVALID PUSH1 0x80 PUSH1 0x40 MSTORE CALLVALUE PUSH3 0x4BE JUMPI PUSH3 0x1F50 DUP1 CODESIZE SUB DUP1 PUSH3 0x1D DUP2 PUSH3 0x4C3 JUMP JUMPDEST SWAP3 DUP4 CODECOPY DUP2 ADD PUSH1 0xE0 DUP3 DUP3 SUB SLT PUSH3 0x4BE JUMPI DUP2 MLOAD PUSH1 0x1 PUSH1 0x1 PUSH1 0xA0 SHL SUB DUP2 AND SWAP1 DUP2 SWAP1 SUB PUSH3 0x4BE JUMPI PUSH1 0x20 SWAP3 DUP4 DUP2 ADD MLOAD SWAP1 PUSH1 0x40 DUP2 ADD MLOAD PUSH1 0x60 DUP3 ADD MLOAD SWAP4 PUSH1 0x80 DUP4 ADD MLOAD SWAP6 PUSH1 0x1 DUP1 PUSH1 0x40 SHL SUB SWAP7 DUP8 DUP2 GT PUSH3 0x4BE JUMPI DUP2 PUSH3 0x79 SWAP2 DUP7 ADD PUSH3 0x4FF JUMP JUMPDEST SWAP4 PUSH1 0xA0 DUP2 ADD MLOAD DUP9 DUP2 GT PUSH3 0x4BE JUMPI DUP3 PUSH3 0x95 SWAP2 DUP4 ADD PUSH3 0x4FF JUMP JUMPDEST SWAP2 PUSH1 0xC0 DUP3 ADD MLOAD DUP10 DUP2 GT PUSH3 0x4BE JUMPI PUSH3 0xAF SWAP3 ADD PUSH3 0x4FF JUMP JUMPDEST PUSH1 0xB DUP1 SLOAD PUSH1 0xFF NOT AND SWAP1 SSTORE PUSH1 0x0 DUP1 SLOAD PUSH1 0x1 PUSH1 0x1 PUSH1 0xA0 SHL SUB NOT AND SWAP1 SWAP4 OR DUP4 SSTORE PUSH1 0x1 SWAP6 DUP7 SSTORE PUSH1 0x2 SWAP4 SWAP1 SWAP4 SSTORE PUSH1 0x3 SWAP6 DUP7 SSTORE DUP4 MLOAD DUP8 DUP2 GT PUSH3 0x3D9 JUMPI PUSH1 0x7 SLOAD SWAP5 DUP7 DUP7 DUP2 SHR SWAP7 AND DUP1 ISZERO PUSH3 0x4B3 JUMPI JUMPDEST DUP11 DUP8 LT EQ PUSH3 0x3BA JUMPI DUP2 SWAP1 PUSH1 0x1F SWAP7 DUP8 DUP2 GT PUSH3 0x45F JUMPI JUMPDEST POP DUP11 SWAP1 DUP8 DUP4 GT PUSH1 0x1 EQ PUSH3 0x3F9 JUMPI DUP6 SWAP3 PUSH3 0x3ED JUMPI JUMPDEST POP POP PUSH1 0x0 NOT DUP3 DUP10 SHL SHR NOT AND SWAP1 DUP7 SHL OR PUSH1 0x7 SSTORE JUMPDEST DUP1 MLOAD SWAP1 DUP8 DUP3 GT PUSH3 0x3D9 JUMPI PUSH1 0x8 SLOAD DUP7 DUP2 DUP2 SHR SWAP2 AND DUP1 ISZERO PUSH3 0x3CE JUMPI JUMPDEST DUP11 DUP3 LT EQ PUSH3 0x3BA JUMPI SWAP1 DUP2 DUP7 DUP5 SWAP4 GT PUSH3 0x366 JUMPI JUMPDEST POP DUP10 SWAP1 DUP7 DUP4 GT PUSH1 0x1 EQ PUSH3 0x301 JUMPI DUP5 SWAP3 PUSH3 0x2F5 JUMPI JUMPDEST POP POP PUSH1 0x0 NOT DUP3 DUP9 SHL SHR NOT AND SWAP1 DUP6 SHL OR PUSH1 0x8 SSTORE JUMPDEST DUP1 PUSH1 0x5 SSTORE DUP2 MLOAD SWAP6 DUP7 GT PUSH3 0x2E1 JUMPI PUSH1 0x9 SLOAD DUP5 DUP2 DUP2 SHR SWAP2 AND DUP1 ISZERO PUSH3 0x2D6 JUMPI JUMPDEST DUP9 DUP3 LT EQ PUSH3 0x2C2 JUMPI DUP4 DUP2 GT PUSH3 0x279 JUMPI JUMPDEST POP DUP7 SWAP3 DUP7 GT PUSH1 0x1 EQ PUSH3 0x20B JUMPI SWAP5 SWAP6 POP DUP6 SWAP3 SWAP2 SWAP1 DUP4 PUSH3 0x1FF JUMPI JUMPDEST POP POP SHL SWAP3 PUSH1 0x0 NOT SWAP2 SHL SHR NOT AND OR PUSH1 0x9 SSTORE JUMPDEST PUSH1 0x40 MLOAD PUSH2 0x19DE SWAP1 DUP2 PUSH3 0x572 DUP3 CODECOPY RETURN JUMPDEST ADD MLOAD SWAP4 POP CODESIZE DUP1 PUSH3 0x1DE JUMP JUMPDEST PUSH1 0x9 DUP2 MSTORE DUP7 DUP2 KECCAK256 SWAP4 SWAP7 SWAP4 SWAP5 SWAP4 DUP7 SWAP2 PUSH1 0x1F NOT DUP4 AND SWAP2 JUMPDEST DUP10 DUP4 DUP4 LT PUSH3 0x25E JUMPI POP POP POP LT PUSH3 0x243 JUMPI JUMPDEST POP POP POP POP DUP2 SHL ADD PUSH1 0x9 SSTORE PUSH3 0x1EF JUMP JUMPDEST ADD MLOAD SWAP1 PUSH1 0xF8 DUP5 PUSH1 0x0 NOT SWAP3 SHL AND SHR NOT AND SWAP1 SSTORE CODESIZE DUP1 DUP1 DUP1 PUSH3 0x233 JUMP JUMPDEST DUP6 DUP8 ADD MLOAD DUP10 SSTORE SWAP1 SWAP8 ADD SWAP7 SWAP5 DUP6 ADD SWAP5 DUP9 SWAP4 POP SWAP1 DUP2 ADD SWAP1 PUSH3 0x220 JUMP JUMPDEST PUSH1 0x9 DUP3 MSTORE DUP8 DUP3 KECCAK256 DUP5 DUP1 DUP10 ADD PUSH1 0x5 SHR DUP3 ADD SWAP3 DUP11 DUP11 LT PUSH3 0x2B8 JUMPI JUMPDEST ADD PUSH1 0x5 SHR ADD SWAP1 DUP6 SWAP1 JUMPDEST DUP3 DUP2 LT PUSH3 0x2AC JUMPI POP POP PUSH3 0x1C3 JUMP JUMPDEST DUP4 DUP2 SSTORE ADD DUP6 SWAP1 PUSH3 0x29C JUMP JUMPDEST SWAP3 POP DUP2 SWAP3 PUSH3 0x293 JUMP JUMPDEST PUSH4 0x4E487B71 PUSH1 0xE0 SHL DUP3 MSTORE PUSH1 0x22 PUSH1 0x4 MSTORE PUSH1 0x24 DUP3 REVERT JUMPDEST SWAP1 PUSH1 0x7F AND SWAP1 PUSH3 0x1B1 JUMP JUMPDEST PUSH4 0x4E487B71 PUSH1 0xE0 SHL DUP2 MSTORE PUSH1 0x41 PUSH1 0x4 MSTORE PUSH1 0x24 SWAP1 REVERT JUMPDEST ADD MLOAD SWAP1 POP CODESIZE DUP1 PUSH3 0x17F JUMP JUMPDEST PUSH1 0x8 DUP6 MSTORE DUP11 DUP6 KECCAK256 DUP9 SWAP5 POP SWAP2 SWAP1 PUSH1 0x1F NOT DUP5 AND DUP7 JUMPDEST DUP14 DUP3 DUP3 LT PUSH3 0x34F JUMPI POP POP DUP5 GT PUSH3 0x336 JUMPI JUMPDEST POP POP POP DUP2 SHL ADD PUSH1 0x8 SSTORE PUSH3 0x192 JUMP JUMPDEST ADD MLOAD PUSH1 0x0 NOT DUP4 DUP11 SHL PUSH1 0xF8 AND SHR NOT AND SWAP1 SSTORE CODESIZE DUP1 DUP1 PUSH3 0x327 JUMP JUMPDEST DUP4 DUP6 ADD MLOAD DUP7 SSTORE DUP12 SWAP8 SWAP1 SWAP6 ADD SWAP5 SWAP4 DUP5 ADD SWAP4 ADD PUSH3 0x314 JUMP JUMPDEST SWAP1 SWAP2 POP PUSH1 0x8 DUP5 MSTORE DUP10 DUP5 KECCAK256 DUP7 DUP1 DUP6 ADD PUSH1 0x5 SHR DUP3 ADD SWAP3 DUP13 DUP7 LT PUSH3 0x3B0 JUMPI JUMPDEST SWAP2 DUP10 SWAP2 DUP7 SWAP6 SWAP5 SWAP4 ADD PUSH1 0x5 SHR ADD SWAP2 JUMPDEST DUP3 DUP2 LT PUSH3 0x3A1 JUMPI POP POP PUSH3 0x169 JUMP JUMPDEST DUP7 DUP2 SSTORE DUP6 SWAP5 POP DUP10 SWAP2 ADD PUSH3 0x391 JUMP JUMPDEST SWAP3 POP DUP2 SWAP3 PUSH3 0x383 JUMP JUMPDEST PUSH4 0x4E487B71 PUSH1 0xE0 SHL DUP5 MSTORE PUSH1 0x22 PUSH1 0x4 MSTORE PUSH1 0x24 DUP5 REVERT JUMPDEST SWAP1 PUSH1 0x7F AND SWAP1 PUSH3 0x154 JUMP JUMPDEST PUSH4 0x4E487B71 PUSH1 0xE0 SHL DUP4 MSTORE PUSH1 0x41 PUSH1 0x4 MSTORE PUSH1 0x24 DUP4 REVERT JUMPDEST ADD MLOAD SWAP1 POP CODESIZE DUP1 PUSH3 0x125 JUMP JUMPDEST PUSH1 0x7 DUP7 MSTORE DUP12 DUP7 KECCAK256 DUP10 SWAP5 POP SWAP2 SWAP1 PUSH1 0x1F NOT DUP5 AND DUP8 DUP15 JUMPDEST DUP3 DUP3 LT PUSH3 0x447 JUMPI POP POP DUP5 GT PUSH3 0x42E JUMPI JUMPDEST POP POP POP DUP2 SHL ADD PUSH1 0x7 SSTORE PUSH3 0x138 JUMP JUMPDEST ADD MLOAD PUSH1 0x0 NOT DUP4 DUP12 SHL PUSH1 0xF8 AND SHR NOT AND SWAP1 SSTORE CODESIZE DUP1 DUP1 PUSH3 0x41F JUMP JUMPDEST DUP4 DUP6 ADD MLOAD DUP7 SSTORE DUP13 SWAP8 SWAP1 SWAP6 ADD SWAP5 SWAP4 DUP5 ADD SWAP4 ADD DUP15 PUSH3 0x40D JUMP JUMPDEST SWAP1 SWAP2 POP PUSH1 0x7 DUP6 MSTORE DUP11 DUP6 KECCAK256 DUP8 DUP1 DUP6 ADD PUSH1 0x5 SHR DUP3 ADD SWAP3 DUP14 DUP7 LT PUSH3 0x4A9 JUMPI JUMPDEST SWAP2 DUP11 SWAP2 DUP7 SWAP6 SWAP5 SWAP4 ADD PUSH1 0x5 SHR ADD SWAP2 JUMPDEST DUP3 DUP2 LT PUSH3 0x49A JUMPI POP POP PUSH3 0x10F JUMP JUMPDEST DUP8 DUP2 SSTORE DUP6 SWAP5 POP DUP11 SWAP2 ADD PUSH3 0x48A JUMP JUMPDEST SWAP3 POP DUP2 SWAP3 PUSH3 0x47C JUMP JUMPDEST SWAP6 PUSH1 0x7F AND SWAP6 PUSH3 0xF8 JUMP JUMPDEST PUSH1 0x0 DUP1 REVERT JUMPDEST PUSH1 0x40 MLOAD SWAP2 SWAP1 PUSH1 0x1F ADD PUSH1 0x1F NOT AND DUP3 ADD PUSH1 0x1 PUSH1 0x1 PUSH1 0x40 SHL SUB DUP2 GT DUP4 DUP3 LT OR PUSH3 0x4E9 JUMPI PUSH1 0x40 MSTORE JUMP JUMPDEST PUSH4 0x4E487B71 PUSH1 0xE0 SHL PUSH1 0x0 MSTORE PUSH1 0x41 PUSH1 0x4 MSTORE PUSH1 0x24 PUSH1 0x0 REVERT JUMPDEST SWAP2 SWAP1 DUP1 PUSH1 0x1F DUP5 ADD SLT ISZERO PUSH3 0x4BE JUMPI DUP3 MLOAD PUSH1 0x1 PUSH1 0x1 PUSH1 0x40 SHL SUB DUP2 GT PUSH3 0x4E9 JUMPI PUSH1 0x20 SWAP1 PUSH3 0x535 PUSH1 0x1F DUP3 ADD PUSH1 0x1F NOT AND DUP4 ADD PUSH3 0x4C3 JUMP JUMPDEST SWAP3 DUP2 DUP5 MSTORE DUP3 DUP3 DUP8 ADD ADD GT PUSH3 0x4BE JUMPI PUSH1 0x0 JUMPDEST DUP2 DUP2 LT PUSH3 0x55D JUMPI POP DUP3 PUSH1 0x0 SWAP4 SWAP5 SWAP6 POP ADD ADD MSTORE SWAP1 JUMP JUMPDEST DUP6 DUP2 ADD DUP4 ADD MLOAD DUP5 DUP3 ADD DUP5 ADD MSTORE DUP3 ADD PUSH3 0x547 JUMP INVALID PUSH1 0x80 PUSH1 0x40 DUP2 DUP2 MSTORE PUSH1 0x4 SWAP2 DUP3 CALLDATASIZE LT ISZERO PUSH2 0x16 JUMPI PUSH1 0x0 DUP1 REVERT JUMPDEST PUSH1 0x0 SWAP1 DUP2 CALLDATALOAD PUSH1 0xE0 SHR SWAP1 DUP2 PUSH4 0x2D05D3F EQ PUSH2 0x16A0 JUMPI POP DUP1 PUSH4 0x3C29D58 EQ PUSH2 0x15D8 JUMPI DUP1 PUSH4 0x29DCB0CF EQ PUSH2 0x159B JUMPI DUP1 PUSH4 0x3D0300BD EQ PUSH2 0x1345 JUMPI DUP1 PUSH4 0x4E260F6F EQ PUSH2 0x1308 JUMPI DUP1 PUSH4 0x6758A145 EQ PUSH2 0x1240 JUMPI DUP1 PUSH4 0x6F9FB98A EQ PUSH2 0x1207 JUMPI DUP1 PUSH4 0x7A9A8055 EQ PUSH2 0x113F JUMPI DUP1 PUSH4 0x937E09B1 EQ PUSH2 0x1102 JUMPI DUP1 PUSH4 0x9D43B9B5 EQ PUSH2 0x10C6 JUMPI DUP1 PUSH4 0xA00C96D7 EQ PUSH2 0xC99 JUMPI DUP1 PUSH4 0xB82C86D6 EQ PUSH2 0xC5C JUMPI DUP1 PUSH4 0xC19D93FB EQ PUSH2 0xC15 JUMPI DUP1 PUSH4 0xC3E20C9F EQ PUSH2 0xAF0 JUMPI DUP1 PUSH4 0xC59EE1DC EQ PUSH2 0xAB3 JUMPI DUP1 PUSH4 0xD7BB99BA EQ PUSH2 0x5F0 JUMPI PUSH4 0xF9AEBECE EQ PUSH2 0xDF JUMPI PUSH1 0x0 DUP1 REVERT JUMPDEST PUSH1 0x20 SWAP2 DUP3 PUSH32 0xFFFFFFFFFFFFFFFFFFFFFFFFFFFFFFFFFFFFFFFFFFFFFFFFFFFFFFFFFFFFFFFC CALLDATASIZE ADD SLT PUSH2 0x5EC JUMPI DUP4 CALLDATALOAD SWAP4 PUSH8 0xFFFFFFFFFFFFFFFF DUP1 DUP7 GT PUSH2 0x5E8 JUMPI CALLDATASIZE PUSH1 0x23 DUP8 ADD SLT ISZERO PUSH2 0x5E8 JUMPI DUP6 DUP3 ADD CALLDATALOAD SWAP1 DUP1 DUP3 GT PUSH2 0x5BC JUMPI DUP4 MLOAD SWAP2 PUSH32 0xFFFFFFFFFFFFFFFFFFFFFFFFFFFFFFFFFFFFFFFFFFFFFFFFFFFFFFFFFFFFFFE0 SWAP1 PUSH2 0x16B DUP9 DUP4 PUSH1 0x1F DUP5 ADD AND ADD DUP6 PUSH2 0x1741 JUMP JUMPDEST DUP1 DUP5 MSTORE PUSH1 0x24 SWAP9 CALLDATASIZE DUP11 DUP4 DUP4 ADD ADD GT PUSH2 0x5B8 JUMPI DUP2 DUP9 SWAP3 DUP12 DUP12 SWAP4 ADD DUP4 DUP9 ADD CALLDATACOPY DUP6 ADD ADD MSTORE PUSH20 0xFFFFFFFFFFFFFFFFFFFFFFFFFFFFFFFFFFFFFFFF SWAP3 PUSH2 0x1AF DUP5 DUP9 SLOAD AND CALLER EQ PUSH2 0x191D JUMP JUMPDEST PUSH1 0x2 SLOAD TIMESTAMP LT ISZERO PUSH2 0x537 JUMPI PUSH1 0xFF PUSH1 0xB SLOAD AND DUP6 DUP2 LT ISZERO PUSH2 0x50C JUMPI DUP1 ISZERO SWAP1 DUP2 ISZERO PUSH2 0x501 JUMPI JUMPDEST POP ISZERO PUSH2 0x480 JUMPI DUP1 MLOAD SWAP3 DUP4 GT PUSH2 0x455 JUMPI SWAP1 DUP3 SWAP2 PUSH2 0x1EE PUSH1 0xA SLOAD PUSH2 0x16EE JUMP JUMPDEST PUSH1 0x1F DUP2 GT PUSH2 0x3E6 JUMPI JUMPDEST POP DUP9 SWAP2 PUSH1 0x1F DUP5 GT PUSH1 0x1 EQ PUSH2 0x34A JUMPI POP DUP8 SWAP3 PUSH2 0x33F JUMPI JUMPDEST POP POP PUSH32 0xFFFFFFFFFFFFFFFFFFFFFFFFFFFFFFFFFFFFFFFFFFFFFFFFFFFFFFFFFFFFFFFF DUP3 PUSH1 0x1 SHL SWAP3 PUSH1 0x3 SHL SHR NOT AND OR PUSH1 0xA SSTORE JUMPDEST DUP4 JUMPDEST PUSH1 0x6 SLOAD DUP2 LT ISZERO PUSH2 0x2DC JUMPI DUP2 PUSH2 0x256 DUP3 PUSH2 0x184B JUMP JUMPDEST POP SLOAD AND DUP6 DUP1 DUP1 DUP1 PUSH2 0x266 DUP7 PUSH2 0x184B JUMP JUMPDEST POP SWAP5 PUSH1 0x1 DUP1 SWAP7 ADD SLOAD SWAP1 DUP3 DUP3 ISZERO PUSH2 0x2D3 JUMPI JUMPDEST CALL ISZERO PUSH2 0x2C9 JUMPI PUSH2 0x286 DUP3 PUSH2 0x184B JUMP JUMPDEST PUSH2 0x29F JUMPI DUP7 DUP2 SSTORE ADD DUP6 SWAP1 SSTORE PUSH2 0x29A SWAP1 PUSH2 0x18F0 JUMP JUMPDEST PUSH2 0x242 JUMP JUMPDEST DUP9 DUP8 DUP1 DUP8 PUSH32 0x4E487B7100000000000000000000000000000000000000000000000000000000 DUP3 MSTORE MSTORE REVERT JUMPDEST DUP5 MLOAD RETURNDATASIZE DUP8 DUP3 RETURNDATACOPY RETURNDATASIZE SWAP1 REVERT JUMPDEST POP PUSH2 0x8FC PUSH2 0x277 JUMP JUMPDEST DUP5 PUSH32 0xD69EAE259B3E1E42F22F60A8A54DBF4D1983D006A10D5F36C068CCC87EB49391 DUP6 DUP9 PUSH1 0x3 PUSH32 0xFFFFFFFFFFFFFFFFFFFFFFFFFFFFFFFFFFFFFFFFFFFFFFFFFFFFFFFFFFFFFF00 PUSH1 0xB SLOAD AND OR PUSH1 0xB SSTORE PUSH1 0x6 SLOAD SWAP1 PUSH1 0x5 SLOAD SWAP1 DUP4 MLOAD SWAP3 DUP4 MSTORE DUP3 ADD MSTORE LOG1 DUP1 RETURN JUMPDEST ADD MLOAD SWAP1 POP CODESIZE DUP1 PUSH2 0x20D JUMP JUMPDEST PUSH1 0xA DUP10 MSTORE PUSH32 0xC65A7BB8D6351C1CF70C95A316CC6A92839C986682D98BC35F958F4883F9D2A8 SWAP4 AND DUP9 JUMPDEST DUP11 DUP3 DUP3 LT PUSH2 0x3D0 JUMPI POP POP SWAP1 DUP5 PUSH1 0x1 SWAP6 SWAP5 SWAP4 SWAP3 LT PUSH2 0x399 JUMPI JUMPDEST POP POP POP DUP2 SHL ADD PUSH1 0xA SSTORE PUSH2 0x240 JUMP JUMPDEST ADD MLOAD PUSH32 0xFFFFFFFFFFFFFFFFFFFFFFFFFFFFFFFFFFFFFFFFFFFFFFFFFFFFFFFFFFFFFFFF PUSH1 0xF8 DUP5 PUSH1 0x3 SHL AND SHR NOT AND SWAP1 SSTORE CODESIZE DUP1 DUP1 PUSH2 0x38B JUMP JUMPDEST PUSH1 0x1 DUP6 SWAP7 DUP3 SWAP4 SWAP7 DUP7 ADD MLOAD DUP2 SSTORE ADD SWAP6 ADD SWAP4 ADD PUSH2 0x373 JUMP JUMPDEST SWAP1 SWAP2 SWAP3 POP PUSH1 0xA DUP9 MSTORE PUSH32 0xC65A7BB8D6351C1CF70C95A316CC6A92839C986682D98BC35F958F4883F9D2A8 PUSH1 0x1F DUP6 ADD PUSH1 0x5 SHR DUP2 ADD SWAP2 DUP11 DUP7 LT PUSH2 0x44B JUMPI JUMPDEST SWAP1 PUSH1 0x1F DUP7 SWAP6 SWAP5 SWAP4 SWAP3 ADD PUSH1 0x5 SHR ADD SWAP1 JUMPDEST DUP2 DUP2 LT PUSH2 0x43D JUMPI POP PUSH2 0x1F7 JUMP JUMPDEST DUP10 DUP2 SSTORE DUP6 SWAP5 POP PUSH1 0x1 ADD PUSH2 0x430 JUMP JUMPDEST SWAP1 SWAP2 POP DUP2 SWAP1 PUSH2 0x421 JUMP JUMPDEST DUP9 DUP8 PUSH1 0x41 DUP8 PUSH32 0x4E487B7100000000000000000000000000000000000000000000000000000000 DUP4 MSTORE MSTORE REVERT JUMPDEST PUSH1 0x84 DUP6 PUSH1 0x25 DUP12 DUP12 DUP11 MLOAD SWAP4 PUSH32 0x8C379A000000000000000000000000000000000000000000000000000000000 DUP6 MSTORE DUP5 ADD MSTORE DUP3 ADD MSTORE PUSH32 0x496E76616C69642073746174652E2043616E6E6F742061626F72742063616D70 PUSH1 0x44 DUP3 ADD MSTORE PUSH32 0x6169676E2E000000000000000000000000000000000000000000000000000000 PUSH1 0x64 DUP3 ADD MSTORE REVERT JUMPDEST PUSH1 0x1 SWAP2 POP EQ CODESIZE PUSH2 0x1D1 JUMP JUMPDEST DUP10 DUP9 PUSH1 0x21 DUP9 PUSH32 0x4E487B7100000000000000000000000000000000000000000000000000000000 DUP4 MSTORE MSTORE REVERT JUMPDEST PUSH1 0x84 DUP6 PUSH1 0x2C DUP12 DUP12 DUP11 MLOAD SWAP4 PUSH32 0x8C379A000000000000000000000000000000000000000000000000000000000 DUP6 MSTORE DUP5 ADD MSTORE DUP3 ADD MSTORE PUSH32 0x43616D706169676E2063616E6E6F742062652061626F727465642C2064656164 PUSH1 0x44 DUP3 ADD MSTORE PUSH32 0x6C696E65207061737365642E0000000000000000000000000000000000000000 PUSH1 0x64 DUP3 ADD MSTORE REVERT JUMPDEST DUP8 DUP1 REVERT JUMPDEST PUSH1 0x24 DUP6 PUSH1 0x41 DUP6 PUSH32 0x4E487B7100000000000000000000000000000000000000000000000000000000 DUP4 MSTORE MSTORE REVERT JUMPDEST DUP4 DUP1 REVERT JUMPDEST POP DUP1 REVERT JUMPDEST POP SWAP2 SWAP1 DUP3 PUSH32 0xFFFFFFFFFFFFFFFFFFFFFFFFFFFFFFFFFFFFFFFFFFFFFFFFFFFFFFFFFFFFFFFC CALLDATASIZE ADD SLT PUSH2 0xAAF JUMPI PUSH1 0xFF PUSH1 0xB SLOAD AND DUP3 DUP2 LT ISZERO PUSH2 0xA83 JUMPI DUP1 ISZERO SWAP1 DUP2 ISZERO PUSH2 0xA78 JUMPI JUMPDEST POP ISZERO PUSH2 0xA1B JUMPI PUSH1 0x2 SLOAD TIMESTAMP LT ISZERO PUSH2 0x972 JUMPI PUSH1 0x1 SWAP1 DUP2 SLOAD CALLVALUE LT PUSH2 0x915 JUMPI DUP2 PUSH32 0xFFFFFFFFFFFFFFFFFFFFFFFFFFFFFFFFFFFFFFFFFFFFFFFFFFFFFFFFFFFFFFFF DUP6 PUSH1 0x6 SLOAD SWAP1 JUMPDEST DUP2 DUP2 SLT PUSH2 0x881 JUMPI JUMPDEST POP POP PUSH32 0xFFFFFFFFFFFFFFFFFFFFFFFFFFFFFFFFFFFFFFFFFFFFFFFFFFFFFFFFFFFFFFFF DUP2 SUB PUSH2 0x864 JUMPI POP POP PUSH2 0x6B5 PUSH1 0x6 SLOAD PUSH2 0x18F0 JUMP JUMPDEST PUSH1 0x6 SSTORE DUP1 MLOAD DUP2 DUP2 ADD DUP2 DUP2 LT PUSH8 0xFFFFFFFFFFFFFFFF DUP3 GT OR PUSH2 0x838 JUMPI DUP3 MSTORE CALLER DUP2 MSTORE PUSH1 0x20 DUP2 ADD CALLVALUE DUP2 MSTORE PUSH1 0xC SLOAD PUSH9 0x10000000000000000 DUP2 LT ISZERO PUSH2 0x80C JUMPI DUP1 DUP6 PUSH2 0x6FF SWAP3 ADD PUSH1 0xC SSTORE PUSH2 0x184B JUMP JUMPDEST SWAP3 SWAP1 SWAP3 PUSH2 0x7E1 JUMPI SWAP1 PUSH20 0xFFFFFFFFFFFFFFFFFFFFFFFFFFFFFFFFFFFFFFFF DUP6 SWAP3 MLOAD AND PUSH32 0xFFFFFFFFFFFFFFFFFFFFFFFF0000000000000000000000000000000000000000 DUP5 SLOAD AND OR DUP4 SSTORE MLOAD SWAP2 ADD SSTORE JUMPDEST PUSH32 0x5CDC4AB8D637538EAD6CC1904D4160343656C8C82BD266635CFD31AC008FFFE0 PUSH1 0x60 PUSH2 0x77B CALLVALUE PUSH1 0x5 SLOAD PUSH2 0x18B4 JUMP JUMPDEST SWAP3 DUP4 PUSH1 0x5 SSTORE DUP4 DUP2 MLOAD SWAP2 CALLER DUP4 MSTORE CALLVALUE PUSH1 0x20 DUP5 ADD MSTORE DUP3 ADD MSTORE LOG1 PUSH1 0x3 SLOAD GT ISZERO DUP1 PUSH2 0x7D6 JUMPI JUMPDEST PUSH2 0x7A4 JUMPI DUP3 DUP1 RETURN JUMPDEST PUSH32 0xFFFFFFFFFFFFFFFFFFFFFFFFFFFFFFFFFFFFFFFFFFFFFFFFFFFFFFFFFFFFFF00 PUSH1 0xB SLOAD AND OR PUSH1 0xB SSTORE TIMESTAMP SWAP1 SSTORE CODESIZE DUP1 DUP3 DUP1 RETURN JUMPDEST POP PUSH1 0x2 SLOAD TIMESTAMP LT PUSH2 0x79C JUMP JUMPDEST PUSH1 0x24 DUP8 DUP1 DUP9 PUSH32 0x4E487B7100000000000000000000000000000000000000000000000000000000 DUP3 MSTORE MSTORE REVERT JUMPDEST PUSH1 0x24 DUP8 PUSH1 0x41 DUP9 PUSH32 0x4E487B7100000000000000000000000000000000000000000000000000000000 DUP4 MSTORE MSTORE REVERT JUMPDEST PUSH1 0x24 DUP7 PUSH1 0x41 DUP8 PUSH32 0x4E487B7100000000000000000000000000000000000000000000000000000000 DUP4 MSTORE MSTORE REVERT JUMPDEST PUSH2 0x86D SWAP1 PUSH2 0x184B JUMP JUMPDEST POP ADD PUSH2 0x87A CALLVALUE DUP3 SLOAD PUSH2 0x18B4 JUMP JUMPDEST SWAP1 SSTORE PUSH2 0x74C JUMP JUMPDEST SWAP1 SWAP2 SWAP3 PUSH20 0xFFFFFFFFFFFFFFFFFFFFFFFFFFFFFFFFFFFFFFFF PUSH2 0x8A2 DUP4 PUSH2 0x184B JUMP JUMPDEST POP SLOAD AND CALLER EQ PUSH2 0x90A JUMPI POP PUSH32 0x7FFFFFFFFFFFFFFFFFFFFFFFFFFFFFFFFFFFFFFFFFFFFFFFFFFFFFFFFFFFFFFF DUP2 EQ PUSH2 0x8DE JUMPI DUP5 ADD SWAP1 DUP5 SWAP3 SWAP2 PUSH2 0x677 JUMP JUMPDEST PUSH1 0x24 DUP8 PUSH1 0x11 DUP9 PUSH32 0x4E487B7100000000000000000000000000000000000000000000000000000000 DUP4 MSTORE MSTORE REVERT JUMPDEST SWAP3 POP SWAP1 POP CODESIZE DUP1 PUSH2 0x67F JUMP JUMPDEST DUP3 PUSH1 0x20 PUSH1 0x64 SWAP3 MLOAD SWAP2 PUSH32 0x8C379A000000000000000000000000000000000000000000000000000000000 DUP4 MSTORE DUP3 ADD MSTORE PUSH1 0x20 PUSH1 0x24 DUP3 ADD MSTORE PUSH32 0x436F6E747269627574696F6E20616D6F756E7420697320746F6F206C6F772021 PUSH1 0x44 DUP3 ADD MSTORE REVERT JUMPDEST SWAP1 PUSH1 0x20 PUSH1 0xA4 SWAP3 MLOAD SWAP2 PUSH32 0x8C379A000000000000000000000000000000000000000000000000000000000 DUP4 MSTORE DUP3 ADD MSTORE PUSH1 0x48 PUSH1 0x24 DUP3 ADD MSTORE PUSH32 0x536F727279206261636B65722C20646561646C696E6520686173207061737365 PUSH1 0x44 DUP3 ADD MSTORE PUSH32 0x6421204E6F20636F6E747269627574696F6E732063616E206265206163636570 PUSH1 0x64 DUP3 ADD MSTORE PUSH32 0x746564206E6F772E000000000000000000000000000000000000000000000000 PUSH1 0x84 DUP3 ADD MSTORE REVERT JUMPDEST SWAP1 PUSH1 0x20 PUSH1 0x64 SWAP3 MLOAD SWAP2 PUSH32 0x8C379A000000000000000000000000000000000000000000000000000000000 DUP4 MSTORE DUP3 ADD MSTORE PUSH1 0xD PUSH1 0x24 DUP3 ADD MSTORE PUSH32 0x496E76616C696420737461746500000000000000000000000000000000000000 PUSH1 0x44 DUP3 ADD MSTORE REVERT JUMPDEST PUSH1 0x1 SWAP2 POP EQ CODESIZE PUSH2 0x634 JUMP JUMPDEST PUSH1 0x24 DUP5 PUSH1 0x21 DUP6 PUSH32 0x4E487B7100000000000000000000000000000000000000000000000000000000 DUP4 MSTORE MSTORE REVERT JUMPDEST DUP3 DUP1 REVERT JUMPDEST POP SWAP1 CALLVALUE PUSH2 0x5EC JUMPI DUP2 PUSH32 0xFFFFFFFFFFFFFFFFFFFFFFFFFFFFFFFFFFFFFFFFFFFFFFFFFFFFFFFFFFFFFFFC CALLDATASIZE ADD SLT PUSH2 0x5EC JUMPI PUSH1 0x20 SWAP1 PUSH1 0x5 SLOAD SWAP1 MLOAD SWAP1 DUP2 MSTORE RETURN JUMPDEST POP SWAP1 CALLVALUE PUSH2 0x5EC JUMPI DUP2 PUSH32 0xFFFFFFFFFFFFFFFFFFFFFFFFFFFFFFFFFFFFFFFFFFFFFFFFFFFFFFFFFFFFFFFC CALLDATASIZE ADD SLT PUSH2 0x5EC JUMPI DUP1 MLOAD SWAP1 DUP3 PUSH1 0x7 SLOAD PUSH2 0xB30 DUP2 PUSH2 0x16EE JUMP JUMPDEST DUP1 DUP6 MSTORE SWAP2 PUSH1 0x1 SWAP2 DUP1 DUP4 AND SWAP1 DUP2 ISZERO PUSH2 0xBCF JUMPI POP PUSH1 0x1 EQ PUSH2 0xB72 JUMPI JUMPDEST POP POP POP PUSH2 0xB5C DUP3 PUSH2 0xB6E SWAP5 SUB DUP4 PUSH2 0x1741 JUMP JUMPDEST MLOAD SWAP2 DUP3 SWAP2 PUSH1 0x20 DUP4 MSTORE PUSH1 0x20 DUP4 ADD SWAP1 PUSH2 0x17B1 JUMP JUMPDEST SUB SWAP1 RETURN JUMPDEST SWAP5 POP PUSH1 0x7 DUP6 MSTORE PUSH32 0xA66CC928B5EDB82AF9BD49922954155AB7B0942694BEA4CE44661D9A8736C688 JUMPDEST DUP3 DUP7 LT PUSH2 0xBB7 JUMPI POP POP POP PUSH2 0xB5C DUP3 PUSH1 0x20 PUSH2 0xB6E SWAP6 DUP3 ADD ADD SWAP5 PUSH2 0xB4A JUMP JUMPDEST DUP1 SLOAD PUSH1 0x20 DUP8 DUP8 ADD DUP2 ADD SWAP2 SWAP1 SWAP2 MSTORE SWAP1 SWAP6 ADD SWAP5 DUP2 ADD PUSH2 0xB9A JUMP JUMPDEST PUSH2 0xB6E SWAP8 POP DUP7 SWAP4 POP PUSH1 0x20 SWAP3 POP PUSH2 0xB5C SWAP5 SWAP2 POP PUSH32 0xFFFFFFFFFFFFFFFFFFFFFFFFFFFFFFFFFFFFFFFFFFFFFFFFFFFFFFFFFFFFFF00 AND DUP3 DUP5 ADD MSTORE ISZERO ISZERO PUSH1 0x5 SHL DUP3 ADD ADD SWAP5 PUSH2 0xB4A JUMP JUMPDEST POP SWAP1 CALLVALUE PUSH2 0x5EC JUMPI DUP2 PUSH32 0xFFFFFFFFFFFFFFFFFFFFFFFFFFFFFFFFFFFFFFFFFFFFFFFFFFFFFFFFFFFFFFFC CALLDATASIZE ADD SLT PUSH2 0x5EC JUMPI PUSH1 0x20 SWAP1 PUSH2 0xC5A PUSH1 0xFF PUSH1 0xB SLOAD AND SWAP2 MLOAD DUP1 SWAP3 PUSH2 0x180F JUMP JUMPDEST RETURN JUMPDEST POP SWAP1 CALLVALUE PUSH2 0x5EC JUMPI DUP2 PUSH32 0xFFFFFFFFFFFFFFFFFFFFFFFFFFFFFFFFFFFFFFFFFFFFFFFFFFFFFFFFFFFFFFFC CALLDATASIZE ADD SLT PUSH2 0x5EC JUMPI PUSH1 0x20 SWAP1 PUSH1 0x3 SLOAD SWAP1 MLOAD SWAP1 DUP2 MSTORE RETURN JUMPDEST POP SWAP1 CALLVALUE PUSH2 0x5EC JUMPI DUP2 PUSH32 0xFFFFFFFFFFFFFFFFFFFFFFFFFFFFFFFFFFFFFFFFFFFFFFFFFFFFFFFFFFFFFFFC CALLDATASIZE ADD SLT PUSH2 0x5EC JUMPI PUSH20 0xFFFFFFFFFFFFFFFFFFFFFFFFFFFFFFFFFFFFFFFF DUP3 SLOAD AND SWAP2 PUSH1 0x1 SWAP2 DUP3 SLOAD SWAP5 PUSH1 0x2 SLOAD PUSH1 0x3 SLOAD SWAP2 SLOAD PUSH1 0x5 SLOAD DUP5 MLOAD SWAP1 DUP7 DUP3 PUSH1 0x7 SLOAD SWAP2 PUSH2 0xD05 DUP4 PUSH2 0x16EE JUMP JUMPDEST DUP1 DUP4 MSTORE SWAP3 DUP12 DUP2 AND SWAP1 DUP2 ISZERO PUSH2 0x1089 JUMPI POP PUSH1 0x1 EQ PUSH2 0x102B JUMPI JUMPDEST PUSH2 0xD28 SWAP3 POP SUB DUP4 PUSH2 0x1741 JUMP JUMPDEST DUP6 MLOAD SWAP3 DUP8 DUP5 PUSH1 0x8 SLOAD SWAP2 PUSH2 0xD3A DUP4 PUSH2 0x16EE JUMP JUMPDEST DUP1 DUP4 MSTORE SWAP3 DUP13 DUP2 AND SWAP1 DUP2 ISZERO PUSH2 0xFEE JUMPI POP PUSH1 0x1 EQ PUSH2 0xF90 JUMPI JUMPDEST PUSH2 0xD5D SWAP3 POP SUB DUP6 PUSH2 0x1741 JUMP JUMPDEST PUSH1 0xFF PUSH1 0xB SLOAD AND SWAP6 SELFBALANCE SWAP6 DUP9 MLOAD SWAP9 DUP12 DUP11 DUP13 PUSH1 0x9 SLOAD PUSH2 0xD78 DUP2 PUSH2 0x16EE JUMP JUMPDEST DUP1 DUP5 MSTORE SWAP4 DUP2 AND SWAP1 DUP2 ISZERO PUSH2 0xF53 JUMPI POP PUSH1 0x1 EQ PUSH2 0xEF6 JUMPI JUMPDEST PUSH2 0xD9A SWAP3 POP SUB DUP12 PUSH2 0x1741 JUMP JUMPDEST PUSH1 0x6 SLOAD SWAP11 DUP2 MLOAD SWAP13 DUP2 DUP15 SWAP3 SWAP2 PUSH1 0xA SLOAD SWAP2 PUSH2 0xDB2 DUP4 PUSH2 0x16EE JUMP JUMPDEST DUP1 DUP7 MSTORE SWAP3 DUP3 DUP2 AND SWAP1 DUP2 ISZERO PUSH2 0xEB7 JUMPI POP PUSH1 0x1 EQ PUSH2 0xE5A JUMPI JUMPDEST POP POP POP SUB PUSH2 0xDD7 SWAP1 DUP14 PUSH2 0x1741 JUMP JUMPDEST DUP1 MLOAD SWAP14 DUP15 DUP1 SWAP15 DUP2 MSTORE PUSH1 0x20 ADD MSTORE DUP13 ADD MSTORE PUSH1 0x60 DUP12 ADD MSTORE PUSH1 0x80 DUP11 ADD MSTORE PUSH1 0xA0 DUP10 ADD MSTORE PUSH2 0x1A0 DUP1 PUSH1 0xC0 DUP11 ADD MSTORE DUP9 ADD PUSH2 0xE09 SWAP2 PUSH2 0x17B1 JUMP JUMPDEST DUP8 DUP2 SUB PUSH1 0xE0 DUP10 ADD MSTORE PUSH2 0xE1A SWAP2 PUSH2 0x17B1 JUMP JUMPDEST SWAP2 PUSH2 0x100 DUP8 ADD PUSH2 0xE29 SWAP2 PUSH2 0x180F JUMP JUMPDEST PUSH2 0x120 DUP7 ADD MSTORE DUP5 DUP2 SUB PUSH2 0x140 DUP7 ADD MSTORE PUSH2 0xE41 SWAP2 PUSH2 0x17B1 JUMP JUMPDEST SWAP1 PUSH2 0x160 DUP5 ADD MSTORE DUP3 DUP2 SUB PUSH2 0x180 DUP5 ADD MSTORE PUSH2 0xB6E SWAP2 PUSH2 0x17B1 JUMP JUMPDEST SWAP2 SWAP4 SWAP3 POP PUSH1 0xA DUP3 MSTORE PUSH32 0xC65A7BB8D6351C1CF70C95A316CC6A92839C986682D98BC35F958F4883F9D2A8 JUMPDEST DUP5 DUP4 LT PUSH2 0xE9D JUMPI POP POP DUP2 PUSH1 0x20 SWAP3 SWAP4 POP ADD ADD CODESIZE DUP1 DUP1 PUSH2 0xDC9 JUMP JUMPDEST SWAP1 DUP2 DUP2 SWAP5 PUSH1 0x20 DUP6 DUP2 SWAP6 SLOAD SWAP3 ADD ADD MSTORE ADD SWAP2 ADD SWAP1 SWAP2 DUP16 SWAP3 PUSH2 0xE84 JUMP JUMPDEST SWAP2 POP POP PUSH1 0x20 SWAP4 POP PUSH32 0xFFFFFFFFFFFFFFFFFFFFFFFFFFFFFFFFFFFFFFFFFFFFFFFFFFFFFFFFFFFFFF00 SWAP2 POP AND DUP3 DUP5 ADD MSTORE ISZERO ISZERO PUSH1 0x5 SHL DUP3 ADD ADD CODESIZE DUP1 DUP1 PUSH2 0xDC9 JUMP JUMPDEST POP SWAP1 DUP13 SWAP1 DUP15 PUSH1 0x9 DUP4 MSTORE PUSH32 0x6E1540171B6C0C960B71A7020D9F60077F6AF931A8BBF590DA0223DACF75C7AF JUMPDEST DUP3 DUP5 LT PUSH2 0xF3A JUMPI POP POP POP SWAP1 PUSH1 0x20 PUSH2 0xD9A SWAP3 DUP3 ADD ADD PUSH2 0xD8E JUMP JUMPDEST PUSH1 0x20 SWAP3 SWAP5 DUP4 DUP6 DUP4 SLOAD SWAP3 ADD ADD MSTORE ADD SWAP2 ADD SWAP1 SWAP2 DUP15 DUP14 SWAP4 PUSH2 0xF21 JUMP JUMPDEST PUSH1 0x20 SWAP3 POP PUSH2 0xD9A SWAP5 SWAP2 POP PUSH32 0xFFFFFFFFFFFFFFFFFFFFFFFFFFFFFFFFFFFFFFFFFFFFFFFFFFFFFFFFFFFFFF00 AND DUP3 DUP5 ADD MSTORE ISZERO ISZERO PUSH1 0x5 SHL DUP3 ADD ADD PUSH2 0xD8E JUMP JUMPDEST POP PUSH1 0x8 DUP11 MSTORE SWAP1 DUP10 SWAP1 DUP12 PUSH32 0xF3F7A9FE364FAAB93B216DA50A3214154F22A0A2B415B23A84C8169E8B636EE3 JUMPDEST DUP3 DUP5 LT PUSH2 0xFD4 JUMPI POP POP POP SWAP1 PUSH1 0x20 PUSH2 0xD5D SWAP3 DUP3 ADD ADD PUSH2 0xD51 JUMP JUMPDEST PUSH1 0x20 SWAP3 SWAP5 POP DUP1 SLOAD DUP4 DUP6 DUP12 ADD ADD MSTORE ADD SWAP2 ADD SWAP1 SWAP2 DUP12 DUP8 SWAP4 PUSH2 0xFBB JUMP JUMPDEST PUSH1 0x20 SWAP3 POP PUSH2 0xD5D SWAP5 SWAP2 POP PUSH32 0xFFFFFFFFFFFFFFFFFFFFFFFFFFFFFFFFFFFFFFFFFFFFFFFFFFFFFFFFFFFFFF00 AND DUP3 DUP5 ADD MSTORE ISZERO ISZERO PUSH1 0x5 SHL DUP3 ADD ADD PUSH2 0xD51 JUMP JUMPDEST POP PUSH1 0x7 DUP10 MSTORE SWAP1 DUP9 SWAP1 DUP11 PUSH32 0xA66CC928B5EDB82AF9BD49922954155AB7B0942694BEA4CE44661D9A8736C688 JUMPDEST DUP3 DUP5 LT PUSH2 0x106F JUMPI POP POP POP SWAP1 PUSH1 0x20 PUSH2 0xD28 SWAP3 DUP3 ADD ADD PUSH2 0xD1C JUMP JUMPDEST PUSH1 0x20 SWAP3 SWAP5 POP DUP1 SLOAD DUP4 DUP6 DUP10 ADD ADD MSTORE ADD SWAP2 ADD SWAP1 SWAP2 DUP11 DUP6 SWAP4 PUSH2 0x1056 JUMP JUMPDEST PUSH1 0x20 SWAP3 POP PUSH2 0xD28 SWAP5 SWAP2 POP PUSH32 0xFFFFFFFFFFFFFFFFFFFFFFFFFFFFFFFFFFFFFFFFFFFFFFFFFFFFFFFFFFFFFF00 AND DUP3 DUP5 ADD MSTORE ISZERO ISZERO PUSH1 0x5 SHL DUP3 ADD ADD PUSH2 0xD1C JUMP JUMPDEST POP SWAP2 CALLVALUE PUSH2 0xAAF JUMPI DUP3 PUSH32 0xFFFFFFFFFFFFFFFFFFFFFFFFFFFFFFFFFFFFFFFFFFFFFFFFFFFFFFFFFFFFFFFC CALLDATASIZE ADD SLT PUSH2 0xAAF JUMPI PUSH1 0x20 SWAP3 POP SLOAD SWAP1 MLOAD SWAP1 DUP2 MSTORE RETURN JUMPDEST POP SWAP1 CALLVALUE PUSH2 0x5EC JUMPI DUP2 PUSH32 0xFFFFFFFFFFFFFFFFFFFFFFFFFFFFFFFFFFFFFFFFFFFFFFFFFFFFFFFFFFFFFFFC CALLDATASIZE ADD SLT PUSH2 0x5EC JUMPI PUSH1 0x20 SWAP1 PUSH1 0x1 SLOAD SWAP1 MLOAD SWAP1 DUP2 MSTORE RETURN JUMPDEST POP SWAP1 CALLVALUE PUSH2 0x5EC JUMPI DUP2 PUSH32 0xFFFFFFFFFFFFFFFFFFFFFFFFFFFFFFFFFFFFFFFFFFFFFFFFFFFFFFFFFFFFFFFC CALLDATASIZE ADD SLT PUSH2 0x5EC JUMPI DUP1 MLOAD SWAP1 DUP3 PUSH1 0x9 SLOAD PUSH2 0x117F DUP2 PUSH2 0x16EE JUMP JUMPDEST DUP1 DUP6 MSTORE SWAP2 PUSH1 0x1 SWAP2 DUP1 DUP4 AND SWAP1 DUP2 ISZERO PUSH2 0xBCF JUMPI POP PUSH1 0x1 EQ PUSH2 0x11AA JUMPI POP POP POP PUSH2 0xB5C DUP3 PUSH2 0xB6E SWAP5 SUB DUP4 PUSH2 0x1741 JUMP JUMPDEST SWAP5 POP PUSH1 0x9 DUP6 MSTORE PUSH32 0x6E1540171B6C0C960B71A7020D9F60077F6AF931A8BBF590DA0223DACF75C7AF JUMPDEST DUP3 DUP7 LT PUSH2 0x11EF JUMPI POP POP POP PUSH2 0xB5C DUP3 PUSH1 0x20 PUSH2 0xB6E SWAP6 DUP3 ADD ADD SWAP5 PUSH2 0xB4A JUMP JUMPDEST DUP1 SLOAD PUSH1 0x20 DUP8 DUP8 ADD DUP2 ADD SWAP2 SWAP1 SWAP2 MSTORE SWAP1 SWAP6 ADD SWAP5 DUP2 ADD PUSH2 0x11D2 JUMP JUMPDEST POP SWAP1 CALLVALUE PUSH2 0x5EC JUMPI DUP2 PUSH32 0xFFFFFFFFFFFFFFFFFFFFFFFFFFFFFFFFFFFFFFFFFFFFFFFFFFFFFFFFFFFFFFFC CALLDATASIZE ADD SLT PUSH2 0x5EC JUMPI MLOAD SELFBALANCE DUP2 MSTORE PUSH1 0x20 SWAP1 RETURN JUMPDEST POP SWAP1 CALLVALUE PUSH2 0x5EC JUMPI DUP2 PUSH32 0xFFFFFFFFFFFFFFFFFFFFFFFFFFFFFFFFFFFFFFFFFFFFFFFFFFFFFFFFFFFFFFFC CALLDATASIZE ADD SLT PUSH2 0x5EC JUMPI DUP1 MLOAD SWAP1 DUP3 PUSH1 0xA SLOAD PUSH2 0x1280 DUP2 PUSH2 0x16EE JUMP JUMPDEST DUP1 DUP6 MSTORE SWAP2 PUSH1 0x1 SWAP2 DUP1 DUP4 AND SWAP1 DUP2 ISZERO PUSH2 0xBCF JUMPI POP PUSH1 0x1 EQ PUSH2 0x12AB JUMPI POP POP POP PUSH2 0xB5C DUP3 PUSH2 0xB6E SWAP5 SUB DUP4 PUSH2 0x1741 JUMP JUMPDEST SWAP5 POP PUSH1 0xA DUP6 MSTORE PUSH32 0xC65A7BB8D6351C1CF70C95A316CC6A92839C986682D98BC35F958F4883F9D2A8 JUMPDEST DUP3 DUP7 LT PUSH2 0x12F0 JUMPI POP POP POP PUSH2 0xB5C DUP3 PUSH1 0x20 PUSH2 0xB6E SWAP6 DUP3 ADD ADD SWAP5 PUSH2 0xB4A JUMP JUMPDEST DUP1 SLOAD PUSH1 0x20 DUP8 DUP8 ADD DUP2 ADD SWAP2 SWAP1 SWAP2 MSTORE SWAP1 SWAP6 ADD SWAP5 DUP2 ADD PUSH2 0x12D3 JUMP JUMPDEST POP SWAP1 CALLVALUE PUSH2 0x5EC JUMPI DUP2 PUSH32 0xFFFFFFFFFFFFFFFFFFFFFFFFFFFFFFFFFFFFFFFFFFFFFFFFFFFFFFFFFFFFFFFC CALLDATASIZE ADD SLT PUSH2 0x5EC JUMPI PUSH1 0x20 SWAP1 PUSH1 0x6 SLOAD SWAP1 MLOAD SWAP1 DUP2 MSTORE RETURN JUMPDEST POP SWAP2 DUP3 PUSH32 0xFFFFFFFFFFFFFFFFFFFFFFFFFFFFFFFFFFFFFFFFFFFFFFFFFFFFFFFFFFFFFFFC CALLDATASIZE ADD SLT PUSH2 0xAAF JUMPI PUSH20 0xFFFFFFFFFFFFFFFFFFFFFFFFFFFFFFFFFFFFFFFF SWAP1 DUP2 DUP5 SLOAD AND SWAP1 PUSH2 0x1396 DUP3 CALLER EQ PUSH2 0x191D JUMP JUMPDEST PUSH1 0xFF PUSH1 0xB SLOAD AND DUP2 DUP2 LT ISZERO PUSH2 0x156F JUMPI PUSH1 0x1 SUB PUSH2 0x14C6 JUMPI PUSH1 0x2 SLOAD TIMESTAMP LT ISZERO PUSH2 0x1443 JUMPI POP DUP4 DUP1 DUP1 DUP1 SWAP4 PUSH1 0x5 SLOAD SWAP1 DUP3 DUP3 ISZERO PUSH2 0x143A JUMPI JUMPDEST CALL ISZERO PUSH2 0x142F JUMPI SWAP1 PUSH32 0xC364254574C58E1BDD9077B0E35E609EE391CA636748A275674D5FB5BDC1D3F6 SWAP2 PUSH1 0x2 PUSH32 0xFFFFFFFFFFFFFFFFFFFFFFFFFFFFFFFFFFFFFFFFFFFFFFFFFFFFFFFFFFFFFF00 PUSH1 0xB SLOAD AND OR PUSH1 0xB SSTORE DUP4 SLOAD AND PUSH1 0x5 SLOAD DUP3 MLOAD SWAP2 DUP3 MSTORE PUSH1 0x20 DUP3 ADD MSTORE LOG1 DUP1 RETURN JUMPDEST POP MLOAD SWAP1 RETURNDATASIZE SWAP1 DUP3 RETURNDATACOPY RETURNDATASIZE SWAP1 REVERT JUMPDEST POP PUSH2 0x8FC PUSH2 0x13C7 JUMP JUMPDEST PUSH1 0x84 SWAP1 PUSH1 0x20 DUP6 MLOAD SWAP2 PUSH32 0x8C379A000000000000000000000000000000000000000000000000000000000 DUP4 MSTORE DUP3 ADD MSTORE PUSH1 0x2F PUSH1 0x24 DUP3 ADD MSTORE PUSH32 0x43616D706169676E2063616E6E6F7420626520656E6465642C20646561646C69 PUSH1 0x44 DUP3 ADD MSTORE PUSH32 0x6E65206E6F7420726561636865642E0000000000000000000000000000000000 PUSH1 0x64 DUP3 ADD MSTORE REVERT JUMPDEST PUSH1 0xA4 SWAP1 PUSH1 0x20 DUP6 MLOAD SWAP2 PUSH32 0x8C379A000000000000000000000000000000000000000000000000000000000 DUP4 MSTORE DUP3 ADD MSTORE PUSH1 0x4F PUSH1 0x24 DUP3 ADD MSTORE PUSH32 0x476F616C206E6F7420726561636865642C20616D6F756E742063616E6E6F7420 PUSH1 0x44 DUP3 ADD MSTORE PUSH32 0x62652077697468647261776E2E20506C656173652061626F727420746F207265 PUSH1 0x64 DUP3 ADD MSTORE PUSH32 0x66756E6420746F206261636B6572730000000000000000000000000000000000 PUSH1 0x84 DUP3 ADD MSTORE REVERT JUMPDEST PUSH1 0x24 DUP7 PUSH1 0x21 DUP5 PUSH32 0x4E487B7100000000000000000000000000000000000000000000000000000000 DUP4 MSTORE MSTORE REVERT JUMPDEST POP SWAP1 CALLVALUE PUSH2 0x5EC JUMPI DUP2 PUSH32 0xFFFFFFFFFFFFFFFFFFFFFFFFFFFFFFFFFFFFFFFFFFFFFFFFFFFFFFFFFFFFFFFC CALLDATASIZE ADD SLT PUSH2 0x5EC JUMPI PUSH1 0x20 SWAP1 PUSH1 0x2 SLOAD SWAP1 MLOAD SWAP1 DUP2 MSTORE RETURN JUMPDEST POP SWAP1 CALLVALUE PUSH2 0x5EC JUMPI DUP2 PUSH32 0xFFFFFFFFFFFFFFFFFFFFFFFFFFFFFFFFFFFFFFFFFFFFFFFFFFFFFFFFFFFFFFFC CALLDATASIZE ADD SLT PUSH2 0x5EC JUMPI DUP1 MLOAD SWAP1 DUP3 PUSH1 0x8 SLOAD PUSH2 0x1618 DUP2 PUSH2 0x16EE JUMP JUMPDEST DUP1 DUP6 MSTORE SWAP2 PUSH1 0x1 SWAP2 DUP1 DUP4 AND SWAP1 DUP2 ISZERO PUSH2 0xBCF JUMPI POP PUSH1 0x1 EQ PUSH2 0x1643 JUMPI POP POP POP PUSH2 0xB5C DUP3 PUSH2 0xB6E SWAP5 SUB DUP4 PUSH2 0x1741 JUMP JUMPDEST SWAP5 POP PUSH1 0x8 DUP6 MSTORE PUSH32 0xF3F7A9FE364FAAB93B216DA50A3214154F22A0A2B415B23A84C8169E8B636EE3 JUMPDEST DUP3 DUP7 LT PUSH2 0x1688 JUMPI POP POP POP PUSH2 0xB5C DUP3 PUSH1 0x20 PUSH2 0xB6E SWAP6 DUP3 ADD ADD SWAP5 PUSH2 0xB4A JUMP JUMPDEST DUP1 SLOAD PUSH1 0x20 DUP8 DUP8 ADD DUP2 ADD SWAP2 SWAP1 SWAP2 MSTORE SWAP1 SWAP6 ADD SWAP5 DUP2 ADD PUSH2 0x166B JUMP JUMPDEST SWAP1 POP CALLVALUE PUSH2 0x5EC JUMPI DUP2 PUSH32 0xFFFFFFFFFFFFFFFFFFFFFFFFFFFFFFFFFFFFFFFFFFFFFFFFFFFFFFFFFFFFFFFC CALLDATASIZE ADD SLT PUSH2 0x5EC JUMPI PUSH20 0xFFFFFFFFFFFFFFFFFFFFFFFFFFFFFFFFFFFFFFFF PUSH1 0x20 SWAP3 SLOAD AND DUP2 MSTORE RETURN JUMPDEST SWAP1 PUSH1 0x1 DUP3 DUP2 SHR SWAP3 AND DUP1 ISZERO PUSH2 0x1737 JUMPI JUMPDEST PUSH1 0x20 DUP4 LT EQ PUSH2 0x1708 JUMPI JUMP JUMPDEST PUSH32 0x4E487B7100000000000000000000000000000000000000000000000000000000 PUSH1 0x0 MSTORE PUSH1 0x22 PUSH1 0x4 MSTORE PUSH1 0x24 PUSH1 0x0 REVERT JUMPDEST SWAP2 PUSH1 0x7F AND SWAP2 PUSH2 0x16FD JUMP JUMPDEST SWAP1 PUSH1 0x1F PUSH32 0xFFFFFFFFFFFFFFFFFFFFFFFFFFFFFFFFFFFFFFFFFFFFFFFFFFFFFFFFFFFFFFE0 SWAP2 ADD AND DUP2 ADD SWAP1 DUP2 LT PUSH8 0xFFFFFFFFFFFFFFFF DUP3 GT OR PUSH2 0x1782 JUMPI PUSH1 0x40 MSTORE JUMP JUMPDEST PUSH32 0x4E487B7100000000000000000000000000000000000000000000000000000000 PUSH1 0x0 MSTORE PUSH1 0x41 PUSH1 0x4 MSTORE PUSH1 0x24 PUSH1 0x0 REVERT JUMPDEST SWAP2 SWAP1 DUP3 MLOAD SWAP3 DUP4 DUP3 MSTORE PUSH1 0x0 JUMPDEST DUP5 DUP2 LT PUSH2 0x17FB JUMPI POP POP PUSH32 0xFFFFFFFFFFFFFFFFFFFFFFFFFFFFFFFFFFFFFFFFFFFFFFFFFFFFFFFFFFFFFFE0 PUSH1 0x1F DUP5 PUSH1 0x0 PUSH1 0x20 DUP1 SWAP7 SWAP8 DUP7 ADD ADD MSTORE ADD AND ADD ADD SWAP1 JUMP JUMPDEST PUSH1 0x20 DUP2 DUP4 ADD DUP2 ADD MLOAD DUP5 DUP4 ADD DUP3 ADD MSTORE ADD PUSH2 0x17BC JUMP JUMPDEST SWAP1 PUSH1 0x4 DUP3 LT ISZERO PUSH2 0x181C JUMPI MSTORE JUMP JUMPDEST PUSH32 0x4E487B7100000000000000000000000000000000000000000000000000000000 PUSH1 0x0 MSTORE PUSH1 0x21 PUSH1 0x4 MSTORE PUSH1 0x24 PUSH1 0x0 REVERT JUMPDEST PUSH1 0xC SLOAD DUP2 LT ISZERO PUSH2 0x1885 JUMPI PUSH1 0xC PUSH1 0x0 MSTORE PUSH1 0x1 SHL PUSH32 0xDF6966C971051C3D54EC59162606531493A51404A002842F56009D7E5CF4A8C7 ADD SWAP1 PUSH1 0x0 SWAP1 JUMP JUMPDEST PUSH32 0x4E487B7100000000000000000000000000000000000000000000000000000000 PUSH1 0x0 MSTORE PUSH1 0x32 PUSH1 0x4 MSTORE PUSH1 0x24 PUSH1 0x0 REVERT JUMPDEST SWAP2 SWAP1 DUP3 ADD DUP1 SWAP3 GT PUSH2 0x18C1 JUMPI JUMP JUMPDEST PUSH32 0x4E487B7100000000000000000000000000000000000000000000000000000000 PUSH1 0x0 MSTORE PUSH1 0x11 PUSH1 0x4 MSTORE PUSH1 0x24 PUSH1 0x0 REVERT JUMPDEST PUSH32 0xFFFFFFFFFFFFFFFFFFFFFFFFFFFFFFFFFFFFFFFFFFFFFFFFFFFFFFFFFFFFFFFF DUP2 EQ PUSH2 0x18C1 JUMPI PUSH1 0x1 ADD SWAP1 JUMP JUMPDEST ISZERO PUSH2 0x1924 JUMPI JUMP JUMPDEST PUSH1 0x84 PUSH1 0x40 MLOAD PUSH32 0x8C379A000000000000000000000000000000000000000000000000000000000 DUP2 MSTORE PUSH1 0x20 PUSH1 0x4 DUP3 ADD MSTORE PUSH1 0x30 PUSH1 0x24 DUP3 ADD MSTORE PUSH32 0x596F7520646F6E7420686176652061636365737320746F20706572666F726D20 PUSH1 0x44 DUP3 ADD MSTORE PUSH32 0x74686973206F7065726174696F6E202100000000000000000000000000000000 PUSH1 0x64 DUP3 ADD MSTORE REVERT INVALID LOG2 PUSH5 0x6970667358 0x22 SLT KECCAK256 0x5D 0x4E 0xB9 0xC6 SWAP5 BALANCE SLT JUMPDEST SAR 0xD0 PUSH25 0x7568BDC7C2FD9096B38EF0FC0A5B689507DF8608E864736F6C PUSH4 0x43000811 STOP CALLER LOG2 PUSH5 0x6970667358 0x22 SLT KECCAK256 GASLIMIT PUSH9 0xAADC7FA59BDFA99F83 PUSH26 0xE4B3D7D461DB9A32D6709A6CC2A42604D9AAD9064736F6C6343 STOP ADDMOD GT STOP CALLER "},"gasEstimates":{"creation":{"codeDepositCost":"1850200","executionCost":"1965","totalCost":"1852165"},"external":{"createCampaign(string,string,uint256,uint256,uint256,string)":"infinite","returnDeployedCampaigns()":"infinite"}},"methodIdentifiers":{"createCampaign(string,string,uint256,uint256,uint256,string)":"6b047df4","returnDeployedCampaigns()":"e327e214"}},"storageLayout":{"storage":[{"astId":35,"contract":"contracts/CrowdHelp.sol:CrowdHelp","label":"deployedCampaigns","offset":0,"slot":"0","type":"t_array(t_contract(Campaign)588)dyn_storage"}],"types":{"t_array(t_contract(Campaign)588)dyn_storage":{"base":"t_contract(Campaign)588","encoding":"dynamic_array","label":"contract Campaign[]","numberOfBytes":"32"},"t_contract(Campaign)588":{"encoding":"inplace","label":"contract Campaign","numberOfBytes":"20"}}},"userdoc":{"kind":"user","methods":{},"version":1}}}}