{
  "_format": "hh-sol-artifact-1",
  "contractName": "Campaign",
  "sourceName": "contracts/CrowdHelp.sol",
  "abi": [
    {
      "inputs": [
        {
          "internalType": "address",
          "name": "_creator",
          "type": "address"
        },
        {
          "internalType": "uint256",
          "name": "_minimumContribution",
          "type": "uint256"
        },
        {
          "internalType": "uint256",
          "name": "_deadline",
          "type": "uint256"
        },
        {
          "internalType": "uint256",
          "name": "_targetContribution",
          "type": "uint256"
        },
        {
          "internalType": "string",
          "name": "_projectTitle",
          "type": "string"
        },
        {
          "internalType": "string",
          "name": "_projectDes",
          "type": "string"
        },
        {
          "internalType": "string",
          "name": "_bannerUrl",
          "type": "string"
        }
      ],
      "stateMutability": "nonpayable",
      "type": "constructor"
    },
    {
      "anonymous": false,
      "inputs": [
        {
          "indexed": false,
          "internalType": "address",
          "name": "contributor",
          "type": "address"
        },
        {
          "indexed": false,
          "internalType": "uint256",
          "name": "amountTotal",
          "type": "uint256"
        }
      ],
      "name": "AmountCredited",
      "type": "event"
    },
    {
      "anonymous": false,
      "inputs": [
        {
          "indexed": false,
          "internalType": "uint256",
          "name": "noOfContributors",
          "type": "uint256"
        },
        {
          "indexed": false,
          "internalType": "uint256",
          "name": "amountTotal",
          "type": "uint256"
        }
      ],
      "name": "AmountRefunded",
      "type": "event"
    },
    {
      "anonymous": false,
      "inputs": [
        {
          "indexed": false,
          "internalType": "address",
          "name": "contributor",
          "type": "address"
        },
        {
          "indexed": false,
          "internalType": "uint256",
          "name": "amount",
          "type": "uint256"
        },
        {
          "indexed": false,
          "internalType": "uint256",
          "name": "currentTotal",
          "type": "uint256"
        }
      ],
      "name": "FundingReceived",
      "type": "event"
    },
    {
      "inputs": [
        {
          "internalType": "string",
          "name": "_abortReason",
          "type": "string"
        }
      ],
      "name": "abortCampaignAndRefund",
      "outputs": [],
      "stateMutability": "payable",
      "type": "function"
    },
    {
      "inputs": [],
      "name": "abortReason",
      "outputs": [
        {
          "internalType": "string",
          "name": "",
          "type": "string"
        }
      ],
      "stateMutability": "view",
      "type": "function"
    },
    {
      "inputs": [],
      "name": "bannerUrl",
      "outputs": [
        {
          "internalType": "string",
          "name": "",
          "type": "string"
        }
      ],
      "stateMutability": "view",
      "type": "function"
    },
    {
      "inputs": [],
      "name": "contribute",
      "outputs": [],
      "stateMutability": "payable",
      "type": "function"
    },
    {
      "inputs": [],
      "name": "creator",
      "outputs": [
        {
          "internalType": "address payable",
          "name": "",
          "type": "address"
        }
      ],
      "stateMutability": "view",
      "type": "function"
    },
    {
      "inputs": [],
      "name": "deadline",
      "outputs": [
        {
          "internalType": "uint256",
          "name": "",
          "type": "uint256"
        }
      ],
      "stateMutability": "view",
      "type": "function"
    },
    {
      "inputs": [],
      "name": "endCampaignAndCredit",
      "outputs": [],
      "stateMutability": "payable",
      "type": "function"
    },
    {
      "inputs": [],
      "name": "getCampaignSummary",
      "outputs": [
        {
          "internalType": "address payable",
          "name": "projectStarter",
          "type": "address"
        },
        {
          "internalType": "uint256",
          "name": "minContribution",
          "type": "uint256"
        },
        {
          "internalType": "uint256",
          "name": "projectDeadline",
          "type": "uint256"
        },
        {
          "internalType": "uint256",
          "name": "goalAmount",
          "type": "uint256"
        },
        {
          "internalType": "uint256",
          "name": "completedTime",
          "type": "uint256"
        },
        {
          "internalType": "uint256",
          "name": "currentAmount",
          "type": "uint256"
        },
        {
          "internalType": "string",
          "name": "title",
          "type": "string"
        },
        {
          "internalType": "string",
          "name": "desc",
          "type": "string"
        },
        {
          "internalType": "enum Campaign.State",
          "name": "currentState",
          "type": "uint8"
        },
        {
          "internalType": "uint256",
          "name": "balance",
          "type": "uint256"
        },
        {
          "internalType": "string",
          "name": "imageUrl",
          "type": "string"
        },
        {
          "internalType": "uint256",
          "name": "numBackers",
          "type": "uint256"
        },
        {
          "internalType": "string",
          "name": "reason",
          "type": "string"
        }
      ],
      "stateMutability": "view",
      "type": "function"
    },
    {
      "inputs": [],
      "name": "getContractBalance",
      "outputs": [
        {
          "internalType": "uint256",
          "name": "",
          "type": "uint256"
        }
      ],
      "stateMutability": "view",
      "type": "function"
    },
    {
      "inputs": [],
      "name": "minimumContribution",
      "outputs": [
        {
          "internalType": "uint256",
          "name": "",
          "type": "uint256"
        }
      ],
      "stateMutability": "view",
      "type": "function"
    },
    {
      "inputs": [],
      "name": "noOfContributors",
      "outputs": [
        {
          "internalType": "uint256",
          "name": "",
          "type": "uint256"
        }
      ],
      "stateMutability": "view",
      "type": "function"
    },
    {
      "inputs": [],
      "name": "projectDes",
      "outputs": [
        {
          "internalType": "string",
          "name": "",
          "type": "string"
        }
      ],
      "stateMutability": "view",
      "type": "function"
    },
    {
      "inputs": [],
      "name": "projectTitle",
      "outputs": [
        {
          "internalType": "string",
          "name": "",
          "type": "string"
        }
      ],
      "stateMutability": "view",
      "type": "function"
    },
    {
      "inputs": [],
      "name": "raisedAmount",
      "outputs": [
        {
          "internalType": "uint256",
          "name": "",
          "type": "uint256"
        }
      ],
      "stateMutability": "view",
      "type": "function"
    },
    {
      "inputs": [],
      "name": "reachedTargetAt",
      "outputs": [
        {
          "internalType": "uint256",
          "name": "",
          "type": "uint256"
        }
      ],
      "stateMutability": "view",
      "type": "function"
    },
    {
      "inputs": [],
      "name": "state",
      "outputs": [
        {
          "internalType": "enum Campaign.State",
          "name": "",
          "type": "uint8"
        }
      ],
      "stateMutability": "view",
      "type": "function"
    },
    {
      "inputs": [],
      "name": "targetContribution",
      "outputs": [
        {
          "internalType": "uint256",
          "name": "",
          "type": "uint256"
        }
      ],
      "stateMutability": "view",
      "type": "function"
    }
  ],
  "bytecode": "0x608060405234620004be5762001f50803803806200001d81620004c3565b928339810160e082820312620004be5781516001600160a01b03811690819003620004be576020928381015190604081015160608201519360808301519560018060401b0396878111620004be578162000079918601620004ff565b9360a0810151888111620004be578262000095918301620004ff565b9160c0820151898111620004be57620000af9201620004ff565b600b805460ff19169055600080546001600160a01b0319169093178355600195865560029390935560039586558351878111620003d957600754948686811c96168015620004b3575b8a871014620003ba578190601f968781116200045f575b508a90878311600114620003f9578592620003ed575b505060001982891b1c191690861b176007555b805190878211620003d9576008548681811c91168015620003ce575b8a821014620003ba5790818684931162000366575b50899086831160011462000301578492620002f5575b505060001982881b1c191690851b176008555b806005558151958611620002e1576009548481811c91168015620002d6575b88821014620002c25783811162000279575b50869286116001146200020b579495508592919083620001ff575b50501b92600019911b1c1916176009555b6040516119de9081620005728239f35b015193503880620001de565b6009815286812093969394938691601f198316915b898383106200025e575050501062000243575b50505050811b01600955620001ef565b01519060f884600019921b161c191690553880808062000233565b85870151895590970196948501948893509081019062000220565b600982528782208480890160051c8201928a8a10620002b8575b0160051c019085905b828110620002ac575050620001c3565b8381550185906200029c565b9250819262000293565b634e487b7160e01b82526022600452602482fd5b90607f1690620001b1565b634e487b7160e01b81526041600452602490fd5b0151905038806200017f565b600885528a85208894509190601f198416865b8d8282106200034f575050841162000336575b505050811b0160085562000192565b0151600019838a1b60f8161c1916905538808062000327565b8385015186558b9790950194938401930162000314565b909150600884528984208680850160051c8201928c8610620003b0575b918991869594930160051c01915b828110620003a157505062000169565b86815585945089910162000391565b9250819262000383565b634e487b7160e01b84526022600452602484fd5b90607f169062000154565b634e487b7160e01b83526041600452602483fd5b01519050388062000125565b600786528b86208994509190601f198416878e5b8282106200044757505084116200042e575b505050811b0160075562000138565b0151600019838b1b60f8161c191690553880806200041f565b8385015186558c979095019493840193018e6200040d565b909150600785528a85208780850160051c8201928d8610620004a9575b918a91869594930160051c01915b8281106200049a5750506200010f565b8781558594508a91016200048a565b925081926200047c565b95607f1695620000f8565b600080fd5b6040519190601f01601f191682016001600160401b03811183821017620004e957604052565b634e487b7160e01b600052604160045260246000fd5b919080601f84011215620004be5782516001600160401b038111620004e95760209062000535601f8201601f19168301620004c3565b92818452828287010111620004be5760005b8181106200055d57508260009394955001015290565b85810183015184820184015282016200054756fe608060408181526004918236101561001657600080fd5b600090813560e01c90816302d05d3f146116a05750806303c29d58146115d857806329dcb0cf1461159b5780633d0300bd146113455780634e260f6f146113085780636758a145146112405780636f9fb98a146112075780637a9a80551461113f578063937e09b1146111025780639d43b9b5146110c6578063a00c96d714610c99578063b82c86d614610c5c578063c19d93fb14610c15578063c3e20c9f14610af0578063c59ee1dc14610ab3578063d7bb99ba146105f05763f9aebece146100df57600080fd5b602091827ffffffffffffffffffffffffffffffffffffffffffffffffffffffffffffffffc3601126105ec5783359367ffffffffffffffff8086116105e857366023870112156105e85785820135908082116105bc578351917fffffffffffffffffffffffffffffffffffffffffffffffffffffffffffffffe09061016b8883601f8401160185611741565b808452602498368a83830101116105b8578188928b8b9301838801378501015273ffffffffffffffffffffffffffffffffffffffff926101af84885416331461191d565b6002544210156105375760ff600b54168581101561050c578015908115610501575b5015610480578051928311610455579082916101ee600a546116ee565b601f81116103e6575b508891601f841160011461034a5750879261033f575b50507fffffffffffffffffffffffffffffffffffffffffffffffffffffffffffffffff8260011b9260031b1c191617600a555b835b6006548110156102dc57816102568261184b565b505416858080806102668661184b565b5094600180960154908282156102d3575bf1156102c9576102868261184b565b61029f578681550185905561029a906118f0565b610242565b888780877f4e487b7100000000000000000000000000000000000000000000000000000000825252fd5b84513d87823e3d90fd5b506108fc610277565b847fd69eae259b3e1e42f22f60a8a54dbf4d1983d006a10d5f36c068ccc87eb49391858860037fffffffffffffffffffffffffffffffffffffffffffffffffffffffffffffff00600b541617600b5560065490600554908351928352820152a180f35b01519050388061020d565b600a89527fc65a7bb8d6351c1cf70c95a316cc6a92839c986682d98bc35f958f4883f9d2a89316885b8a8282106103d0575050908460019594939210610399575b505050811b01600a55610240565b01517fffffffffffffffffffffffffffffffffffffffffffffffffffffffffffffffff60f88460031b161c1916905538808061038b565b6001859682939686015181550195019301610373565b90919250600a88527fc65a7bb8d6351c1cf70c95a316cc6a92839c986682d98bc35f958f4883f9d2a8601f850160051c8101918a861061044b575b90601f86959493920160051c01905b81811061043d57506101f7565b898155859450600101610430565b9091508190610421565b88876041877f4e487b7100000000000000000000000000000000000000000000000000000000835252fd5b60848560258b8b8a51937f08c379a00000000000000000000000000000000000000000000000000000000085528401528201527f496e76616c69642073746174652e2043616e6e6f742061626f72742063616d7060448201527f6169676e2e0000000000000000000000000000000000000000000000000000006064820152fd5b6001915014386101d1565b89886021887f4e487b7100000000000000000000000000000000000000000000000000000000835252fd5b608485602c8b8b8a51937f08c379a00000000000000000000000000000000000000000000000000000000085528401528201527f43616d706169676e2063616e6e6f742062652061626f727465642c206465616460448201527f6c696e65207061737365642e00000000000000000000000000000000000000006064820152fd5b8780fd5b6024856041857f4e487b7100000000000000000000000000000000000000000000000000000000835252fd5b8380fd5b5080fd5b509190827ffffffffffffffffffffffffffffffffffffffffffffffffffffffffffffffffc360112610aaf5760ff600b541682811015610a83578015908115610a78575b5015610a1b57600254421015610972576001908154341061091557817fffffffffffffffffffffffffffffffffffffffffffffffffffffffffffffffff85600654905b818112610881575b50507fffffffffffffffffffffffffffffffffffffffffffffffffffffffffffffffff81036108645750506106b56006546118f0565b600655805181810181811067ffffffffffffffff82111761083857825233815260208101348152600c546801000000000000000081101561080c5780856106ff9201600c5561184b565b9290926107e1579073ffffffffffffffffffffffffffffffffffffffff859251167fffffffffffffffffffffffff0000000000000000000000000000000000000000845416178355519101555b7f5cdc4ab8d637538ead6cc1904d4160343656c8c82bd266635cfd31ac008fffe0606061077b346005546118b4565b928360055583815191338352346020840152820152a16003541115806107d6575b6107a4578280f35b7fffffffffffffffffffffffffffffffffffffffffffffffffffffffffffffff00600b541617600b5542905538808280f35b50600254421061079c565b60248780887f4e487b7100000000000000000000000000000000000000000000000000000000825252fd5b6024876041887f4e487b7100000000000000000000000000000000000000000000000000000000835252fd5b6024866041877f4e487b7100000000000000000000000000000000000000000000000000000000835252fd5b61086d9061184b565b500161087a3482546118b4565b905561074c565b90919273ffffffffffffffffffffffffffffffffffffffff6108a28361184b565b505416331461090a57507f7fffffffffffffffffffffffffffffffffffffffffffffffffffffffffffffff81146108de57840190849291610677565b6024876011887f4e487b7100000000000000000000000000000000000000000000000000000000835252fd5b92509050388061067f565b82602060649251917f08c379a0000000000000000000000000000000000000000000000000000000008352820152602060248201527f436f6e747269627574696f6e20616d6f756e7420697320746f6f206c6f7720216044820152fd5b90602060a49251917f08c379a0000000000000000000000000000000000000000000000000000000008352820152604860248201527f536f727279206261636b65722c20646561646c696e652068617320706173736560448201527f6421204e6f20636f6e747269627574696f6e732063616e20626520616363657060648201527f746564206e6f772e0000000000000000000000000000000000000000000000006084820152fd5b90602060649251917f08c379a0000000000000000000000000000000000000000000000000000000008352820152600d60248201527f496e76616c6964207374617465000000000000000000000000000000000000006044820152fd5b600191501438610634565b6024846021857f4e487b7100000000000000000000000000000000000000000000000000000000835252fd5b8280fd5b5090346105ec57817ffffffffffffffffffffffffffffffffffffffffffffffffffffffffffffffffc3601126105ec576020906005549051908152f35b5090346105ec57817ffffffffffffffffffffffffffffffffffffffffffffffffffffffffffffffffc3601126105ec5780519082600754610b30816116ee565b80855291600191808316908115610bcf5750600114610b72575b505050610b5c82610b6e940383611741565b519182916020835260208301906117b1565b0390f35b9450600785527fa66cc928b5edb82af9bd49922954155ab7b0942694bea4ce44661d9a8736c6885b828610610bb757505050610b5c826020610b6e9582010194610b4a565b80546020878701810191909152909501948101610b9a565b610b6e975086935060209250610b5c9491507fffffffffffffffffffffffffffffffffffffffffffffffffffffffffffffff001682840152151560051b82010194610b4a565b5090346105ec57817ffffffffffffffffffffffffffffffffffffffffffffffffffffffffffffffffc3601126105ec57602090610c5a60ff600b54169151809261180f565bf35b5090346105ec57817ffffffffffffffffffffffffffffffffffffffffffffffffffffffffffffffffc3601126105ec576020906003549051908152f35b5090346105ec57817ffffffffffffffffffffffffffffffffffffffffffffffffffffffffffffffffc3601126105ec5773ffffffffffffffffffffffffffffffffffffffff825416916001918254946002546003549154600554845190868260075491610d05836116ee565b808352928b8116908115611089575060011461102b575b610d2892500383611741565b855192878460085491610d3a836116ee565b808352928c8116908115610fee5750600114610f90575b610d5d92500385611741565b60ff600b54169547958851988b8a8c600954610d78816116ee565b808452938116908115610f535750600114610ef6575b610d9a9250038b611741565b6006549a81519c818e9291600a5491610db2836116ee565b80865292828116908115610eb75750600114610e5a575b50505003610dd7908d611741565b80519d8e809e8152602001528c015260608b015260808a015260a08901526101a08060c08a01528801610e09916117b1565b87810360e0890152610e1a916117b1565b916101008701610e299161180f565b610120860152848103610140860152610e41916117b1565b90610160840152828103610180840152610b6e916117b1565b91939250600a82527fc65a7bb8d6351c1cf70c95a316cc6a92839c986682d98bc35f958f4883f9d2a85b848310610e9d5750508160209293500101388080610dc9565b908181946020858195549201015201910190918f92610e84565b915050602093507fffffffffffffffffffffffffffffffffffffffffffffffffffffffffffffff0091501682840152151560051b820101388080610dc9565b50908c908e600983527f6e1540171b6c0c960b71a7020d9f60077f6af931a8bbf590da0223dacf75c7af5b828410610f3a57505050906020610d9a92820101610d8e565b60209294838583549201015201910190918e8d93610f21565b60209250610d9a9491507fffffffffffffffffffffffffffffffffffffffffffffffffffffffffffffff001682840152151560051b820101610d8e565b5060088a529089908b7ff3f7a9fe364faab93b216da50a3214154f22a0a2b415b23a84c8169e8b636ee35b828410610fd457505050906020610d5d92820101610d51565b6020929450805483858b01015201910190918b8793610fbb565b60209250610d5d9491507fffffffffffffffffffffffffffffffffffffffffffffffffffffffffffffff001682840152151560051b820101610d51565b50600789529088908a7fa66cc928b5edb82af9bd49922954155ab7b0942694bea4ce44661d9a8736c6885b82841061106f57505050906020610d2892820101610d1c565b6020929450805483858901015201910190918a8593611056565b60209250610d289491507fffffffffffffffffffffffffffffffffffffffffffffffffffffffffffffff001682840152151560051b820101610d1c565b509134610aaf57827ffffffffffffffffffffffffffffffffffffffffffffffffffffffffffffffffc360112610aaf5760209250549051908152f35b5090346105ec57817ffffffffffffffffffffffffffffffffffffffffffffffffffffffffffffffffc3601126105ec576020906001549051908152f35b5090346105ec57817ffffffffffffffffffffffffffffffffffffffffffffffffffffffffffffffffc3601126105ec578051908260095461117f816116ee565b80855291600191808316908115610bcf57506001146111aa57505050610b5c82610b6e940383611741565b9450600985527f6e1540171b6c0c960b71a7020d9f60077f6af931a8bbf590da0223dacf75c7af5b8286106111ef57505050610b5c826020610b6e9582010194610b4a565b805460208787018101919091529095019481016111d2565b5090346105ec57817ffffffffffffffffffffffffffffffffffffffffffffffffffffffffffffffffc3601126105ec5751478152602090f35b5090346105ec57817ffffffffffffffffffffffffffffffffffffffffffffffffffffffffffffffffc3601126105ec5780519082600a54611280816116ee565b80855291600191808316908115610bcf57506001146112ab57505050610b5c82610b6e940383611741565b9450600a85527fc65a7bb8d6351c1cf70c95a316cc6a92839c986682d98bc35f958f4883f9d2a85b8286106112f057505050610b5c826020610b6e9582010194610b4a565b805460208787018101919091529095019481016112d3565b5090346105ec57817ffffffffffffffffffffffffffffffffffffffffffffffffffffffffffffffffc3601126105ec576020906006549051908152f35b5091827ffffffffffffffffffffffffffffffffffffffffffffffffffffffffffffffffc360112610aaf5773ffffffffffffffffffffffffffffffffffffffff90818454169061139682331461191d565b60ff600b54168181101561156f576001036114c657600254421015611443575083808080936005549082821561143a575bf11561142f57907fc364254574c58e1bdd9077b0e35e609ee391ca636748a275674d5fb5bdc1d3f69160027fffffffffffffffffffffffffffffffffffffffffffffffffffffffffffffff00600b541617600b5583541660055482519182526020820152a180f35b5051903d90823e3d90fd5b506108fc6113c7565b60849060208551917f08c379a0000000000000000000000000000000000000000000000000000000008352820152602f60248201527f43616d706169676e2063616e6e6f7420626520656e6465642c20646561646c6960448201527f6e65206e6f7420726561636865642e00000000000000000000000000000000006064820152fd5b60a49060208551917f08c379a0000000000000000000000000000000000000000000000000000000008352820152604f60248201527f476f616c206e6f7420726561636865642c20616d6f756e742063616e6e6f742060448201527f62652077697468647261776e2e20506c656173652061626f727420746f20726560648201527f66756e6420746f206261636b65727300000000000000000000000000000000006084820152fd5b6024866021847f4e487b7100000000000000000000000000000000000000000000000000000000835252fd5b5090346105ec57817ffffffffffffffffffffffffffffffffffffffffffffffffffffffffffffffffc3601126105ec576020906002549051908152f35b5090346105ec57817ffffffffffffffffffffffffffffffffffffffffffffffffffffffffffffffffc3601126105ec5780519082600854611618816116ee565b80855291600191808316908115610bcf575060011461164357505050610b5c82610b6e940383611741565b9450600885527ff3f7a9fe364faab93b216da50a3214154f22a0a2b415b23a84c8169e8b636ee35b82861061168857505050610b5c826020610b6e9582010194610b4a565b8054602087870181019190915290950194810161166b565b9050346105ec57817ffffffffffffffffffffffffffffffffffffffffffffffffffffffffffffffffc3601126105ec5773ffffffffffffffffffffffffffffffffffffffff60209254168152f35b90600182811c92168015611737575b602083101461170857565b7f4e487b7100000000000000000000000000000000000000000000000000000000600052602260045260246000fd5b91607f16916116fd565b90601f7fffffffffffffffffffffffffffffffffffffffffffffffffffffffffffffffe0910116810190811067ffffffffffffffff82111761178257604052565b7f4e487b7100000000000000000000000000000000000000000000000000000000600052604160045260246000fd5b919082519283825260005b8481106117fb5750507fffffffffffffffffffffffffffffffffffffffffffffffffffffffffffffffe0601f8460006020809697860101520116010190565b6020818301810151848301820152016117bc565b90600482101561181c5752565b7f4e487b7100000000000000000000000000000000000000000000000000000000600052602160045260246000fd5b600c5481101561188557600c60005260011b7fdf6966c971051c3d54ec59162606531493a51404a002842f56009d7e5cf4a8c70190600090565b7f4e487b7100000000000000000000000000000000000000000000000000000000600052603260045260246000fd5b919082018092116118c157565b7f4e487b7100000000000000000000000000000000000000000000000000000000600052601160045260246000fd5b7fffffffffffffffffffffffffffffffffffffffffffffffffffffffffffffffff81146118c15760010190565b1561192457565b60846040517f08c379a000000000000000000000000000000000000000000000000000000000815260206004820152603060248201527f596f7520646f6e7420686176652061636365737320746f20706572666f726d2060448201527f74686973206f7065726174696f6e2021000000000000000000000000000000006064820152fdfea26469706673582212205d4eb9c69431125b1dd0787568bdc7c2fd9096b38ef0fc0a5b689507df8608e864736f6c63430008110033",
  "linkReferences": {},
  "deployedLinkReferences": {}
}